{
	"Bank.sol": {
		"Bank": {
			"abi": [
				{
					"inputs": [],
					"name": "checkBalance",
					"outputs": [
						{
							"internalType": "uint256",
							"name": "balance",
							"type": "uint256"
						}
					],
					"stateMutability": "view",
					"type": "function"
				},
				{
					"inputs": [],
					"name": "deposit",
					"outputs": [],
					"stateMutability": "payable",
					"type": "function"
				},
				{
					"inputs": [
						{
							"internalType": "uint256",
							"name": "amount",
							"type": "uint256"
						}
					],
					"name": "withdraw",
					"outputs": [],
					"stateMutability": "payable",
					"type": "function"
				}
			],
			"devdoc": {
				"kind": "dev",
				"methods": {},
				"version": 1
			},
			"evm": {
				"assembly": "    /* \"Bank.sol\":59:420  contract Bank {... */\n  mstore(0x40, 0x80)\n  callvalue\n  dup1\n  iszero\n  tag_1\n  jumpi\n  0x00\n  dup1\n  revert\ntag_1:\n  pop\n  dataSize(sub_0)\n  dup1\n  dataOffset(sub_0)\n  0x00\n  codecopy\n  0x00\n  return\nstop\n\nsub_0: assembly {\n        /* \"Bank.sol\":59:420  contract Bank {... */\n      mstore(0x40, 0x80)\n      jumpi(tag_1, lt(calldatasize, 0x04))\n      shr(0xe0, calldataload(0x00))\n      dup1\n      0x2e1a7d4d\n      eq\n      tag_2\n      jumpi\n      dup1\n      0xc71daccb\n      eq\n      tag_3\n      jumpi\n      dup1\n      0xd0e30db0\n      eq\n      tag_4\n      jumpi\n    tag_1:\n      0x00\n      dup1\n      revert\n        /* \"Bank.sol\":213:309  function withdraw(uint amount) public payable{... */\n    tag_2:\n      tag_5\n      0x04\n      dup1\n      calldatasize\n      sub\n      dup2\n      add\n      swap1\n      tag_6\n      swap2\n      swap1\n      tag_7\n      jump\t// in\n    tag_6:\n      tag_8\n      jump\t// in\n    tag_5:\n      stop\n        /* \"Bank.sol\":315:418  function checkBalance() public view returns(uint balance) {... */\n    tag_3:\n      callvalue\n      dup1\n      iszero\n      tag_9\n      jumpi\n      0x00\n      dup1\n      revert\n    tag_9:\n      pop\n      tag_10\n      tag_11\n      jump\t// in\n    tag_10:\n      mload(0x40)\n      tag_12\n      swap2\n      swap1\n      tag_13\n      jump\t// in\n    tag_12:\n      mload(0x40)\n      dup1\n      swap2\n      sub\n      swap1\n      return\n        /* \"Bank.sol\":122:207  function deposit() public payable {... */\n    tag_4:\n      tag_14\n      tag_15\n      jump\t// in\n    tag_14:\n      stop\n        /* \"Bank.sol\":213:309  function withdraw(uint amount) public payable{... */\n    tag_8:\n        /* \"Bank.sol\":293:302  msg.value */\n      callvalue\n        /* \"Bank.sol\":268:277  _balances */\n      0x00\n        /* \"Bank.sol\":268:289  _balances[msg.sender] */\n      dup1\n        /* \"Bank.sol\":278:288  msg.sender */\n      caller\n        /* \"Bank.sol\":268:289  _balances[msg.sender] */\n      0xffffffffffffffffffffffffffffffffffffffff\n      and\n      0xffffffffffffffffffffffffffffffffffffffff\n      and\n      dup2\n      mstore\n      0x20\n      add\n      swap1\n      dup2\n      mstore\n      0x20\n      add\n      0x00\n      keccak256\n      0x00\n        /* \"Bank.sol\":268:302  _balances[msg.sender] -= msg.value */\n      dup3\n      dup3\n      sload\n      tag_17\n      swap2\n      swap1\n      tag_18\n      jump\t// in\n    tag_17:\n      swap3\n      pop\n      pop\n      dup2\n      swap1\n      sstore\n      pop\n        /* \"Bank.sol\":213:309  function withdraw(uint amount) public payable{... */\n      pop\n      jump\t// out\n        /* \"Bank.sol\":315:418  function checkBalance() public view returns(uint balance) {... */\n    tag_11:\n        /* \"Bank.sol\":359:371  uint balance */\n      0x00\n        /* \"Bank.sol\":390:399  _balances */\n      dup1\n        /* \"Bank.sol\":390:411  _balances[msg.sender] */\n      0x00\n        /* \"Bank.sol\":400:410  msg.sender */\n      caller\n        /* \"Bank.sol\":390:411  _balances[msg.sender] */\n      0xffffffffffffffffffffffffffffffffffffffff\n      and\n      0xffffffffffffffffffffffffffffffffffffffff\n      and\n      dup2\n      mstore\n      0x20\n      add\n      swap1\n      dup2\n      mstore\n      0x20\n      add\n      0x00\n      keccak256\n      sload\n        /* \"Bank.sol\":383:411  return _balances[msg.sender] */\n      swap1\n      pop\n        /* \"Bank.sol\":315:418  function checkBalance() public view returns(uint balance) {... */\n      swap1\n      jump\t// out\n        /* \"Bank.sol\":122:207  function deposit() public payable {... */\n    tag_15:\n        /* \"Bank.sol\":191:200  msg.value */\n      callvalue\n        /* \"Bank.sol\":166:175  _balances */\n      0x00\n        /* \"Bank.sol\":166:187  _balances[msg.sender] */\n      dup1\n        /* \"Bank.sol\":176:186  msg.sender */\n      caller\n        /* \"Bank.sol\":166:187  _balances[msg.sender] */\n      0xffffffffffffffffffffffffffffffffffffffff\n      and\n      0xffffffffffffffffffffffffffffffffffffffff\n      and\n      dup2\n      mstore\n      0x20\n      add\n      swap1\n      dup2\n      mstore\n      0x20\n      add\n      0x00\n      keccak256\n      0x00\n        /* \"Bank.sol\":166:200  _balances[msg.sender] += msg.value */\n      dup3\n      dup3\n      sload\n      tag_21\n      swap2\n      swap1\n      tag_22\n      jump\t// in\n    tag_21:\n      swap3\n      pop\n      pop\n      dup2\n      swap1\n      sstore\n      pop\n        /* \"Bank.sol\":122:207  function deposit() public payable {... */\n      jump\t// out\n        /* \"#utility.yul\":7:146   */\n    tag_24:\n        /* \"#utility.yul\":53:58   */\n      0x00\n        /* \"#utility.yul\":91:97   */\n      dup2\n        /* \"#utility.yul\":78:98   */\n      calldataload\n        /* \"#utility.yul\":69:98   */\n      swap1\n      pop\n        /* \"#utility.yul\":107:140   */\n      tag_26\n        /* \"#utility.yul\":134:139   */\n      dup2\n        /* \"#utility.yul\":107:140   */\n      tag_27\n      jump\t// in\n    tag_26:\n        /* \"#utility.yul\":7:146   */\n      swap3\n      swap2\n      pop\n      pop\n      jump\t// out\n        /* \"#utility.yul\":152:481   */\n    tag_7:\n        /* \"#utility.yul\":211:217   */\n      0x00\n        /* \"#utility.yul\":260:262   */\n      0x20\n        /* \"#utility.yul\":248:257   */\n      dup3\n        /* \"#utility.yul\":239:246   */\n      dup5\n        /* \"#utility.yul\":235:258   */\n      sub\n        /* \"#utility.yul\":231:263   */\n      slt\n        /* \"#utility.yul\":228:347   */\n      iszero\n      tag_29\n      jumpi\n        /* \"#utility.yul\":266:345   */\n      tag_30\n      tag_31\n      jump\t// in\n    tag_30:\n        /* \"#utility.yul\":228:347   */\n    tag_29:\n        /* \"#utility.yul\":386:387   */\n      0x00\n        /* \"#utility.yul\":411:464   */\n      tag_32\n        /* \"#utility.yul\":456:463   */\n      dup5\n        /* \"#utility.yul\":447:453   */\n      dup3\n        /* \"#utility.yul\":436:445   */\n      dup6\n        /* \"#utility.yul\":432:454   */\n      add\n        /* \"#utility.yul\":411:464   */\n      tag_24\n      jump\t// in\n    tag_32:\n        /* \"#utility.yul\":401:464   */\n      swap2\n      pop\n        /* \"#utility.yul\":357:474   */\n      pop\n        /* \"#utility.yul\":152:481   */\n      swap3\n      swap2\n      pop\n      pop\n      jump\t// out\n        /* \"#utility.yul\":487:605   */\n    tag_33:\n        /* \"#utility.yul\":574:598   */\n      tag_35\n        /* \"#utility.yul\":592:597   */\n      dup2\n        /* \"#utility.yul\":574:598   */\n      tag_36\n      jump\t// in\n    tag_35:\n        /* \"#utility.yul\":569:572   */\n      dup3\n        /* \"#utility.yul\":562:599   */\n      mstore\n        /* \"#utility.yul\":487:605   */\n      pop\n      pop\n      jump\t// out\n        /* \"#utility.yul\":611:833   */\n    tag_13:\n        /* \"#utility.yul\":704:708   */\n      0x00\n        /* \"#utility.yul\":742:744   */\n      0x20\n        /* \"#utility.yul\":731:740   */\n      dup3\n        /* \"#utility.yul\":727:745   */\n      add\n        /* \"#utility.yul\":719:745   */\n      swap1\n      pop\n        /* \"#utility.yul\":755:826   */\n      tag_38\n        /* \"#utility.yul\":823:824   */\n      0x00\n        /* \"#utility.yul\":812:821   */\n      dup4\n        /* \"#utility.yul\":808:825   */\n      add\n        /* \"#utility.yul\":799:805   */\n      dup5\n        /* \"#utility.yul\":755:826   */\n      tag_33\n      jump\t// in\n    tag_38:\n        /* \"#utility.yul\":611:833   */\n      swap3\n      swap2\n      pop\n      pop\n      jump\t// out\n        /* \"#utility.yul\":920:1225   */\n    tag_22:\n        /* \"#utility.yul\":960:963   */\n      0x00\n        /* \"#utility.yul\":979:999   */\n      tag_42\n        /* \"#utility.yul\":997:998   */\n      dup3\n        /* \"#utility.yul\":979:999   */\n      tag_36\n      jump\t// in\n    tag_42:\n        /* \"#utility.yul\":974:999   */\n      swap2\n      pop\n        /* \"#utility.yul\":1013:1033   */\n      tag_43\n        /* \"#utility.yul\":1031:1032   */\n      dup4\n        /* \"#utility.yul\":1013:1033   */\n      tag_36\n      jump\t// in\n    tag_43:\n        /* \"#utility.yul\":1008:1033   */\n      swap3\n      pop\n        /* \"#utility.yul\":1167:1168   */\n      dup3\n        /* \"#utility.yul\":1099:1165   */\n      0xffffffffffffffffffffffffffffffffffffffffffffffffffffffffffffffff\n        /* \"#utility.yul\":1095:1169   */\n      sub\n        /* \"#utility.yul\":1092:1093   */\n      dup3\n        /* \"#utility.yul\":1089:1170   */\n      gt\n        /* \"#utility.yul\":1086:1193   */\n      iszero\n      tag_44\n      jumpi\n        /* \"#utility.yul\":1173:1191   */\n      tag_45\n      tag_46\n      jump\t// in\n    tag_45:\n        /* \"#utility.yul\":1086:1193   */\n    tag_44:\n        /* \"#utility.yul\":1217:1218   */\n      dup3\n        /* \"#utility.yul\":1214:1215   */\n      dup3\n        /* \"#utility.yul\":1210:1219   */\n      add\n        /* \"#utility.yul\":1203:1219   */\n      swap1\n      pop\n        /* \"#utility.yul\":920:1225   */\n      swap3\n      swap2\n      pop\n      pop\n      jump\t// out\n        /* \"#utility.yul\":1231:1422   */\n    tag_18:\n        /* \"#utility.yul\":1271:1275   */\n      0x00\n        /* \"#utility.yul\":1291:1311   */\n      tag_48\n        /* \"#utility.yul\":1309:1310   */\n      dup3\n        /* \"#utility.yul\":1291:1311   */\n      tag_36\n      jump\t// in\n    tag_48:\n        /* \"#utility.yul\":1286:1311   */\n      swap2\n      pop\n        /* \"#utility.yul\":1325:1345   */\n      tag_49\n        /* \"#utility.yul\":1343:1344   */\n      dup4\n        /* \"#utility.yul\":1325:1345   */\n      tag_36\n      jump\t// in\n    tag_49:\n        /* \"#utility.yul\":1320:1345   */\n      swap3\n      pop\n        /* \"#utility.yul\":1364:1365   */\n      dup3\n        /* \"#utility.yul\":1361:1362   */\n      dup3\n        /* \"#utility.yul\":1358:1366   */\n      lt\n        /* \"#utility.yul\":1355:1389   */\n      iszero\n      tag_50\n      jumpi\n        /* \"#utility.yul\":1369:1387   */\n      tag_51\n      tag_46\n      jump\t// in\n    tag_51:\n        /* \"#utility.yul\":1355:1389   */\n    tag_50:\n        /* \"#utility.yul\":1414:1415   */\n      dup3\n        /* \"#utility.yul\":1411:1412   */\n      dup3\n        /* \"#utility.yul\":1407:1416   */\n      sub\n        /* \"#utility.yul\":1399:1416   */\n      swap1\n      pop\n        /* \"#utility.yul\":1231:1422   */\n      swap3\n      swap2\n      pop\n      pop\n      jump\t// out\n        /* \"#utility.yul\":1428:1505   */\n    tag_36:\n        /* \"#utility.yul\":1465:1472   */\n      0x00\n        /* \"#utility.yul\":1494:1499   */\n      dup2\n        /* \"#utility.yul\":1483:1499   */\n      swap1\n      pop\n        /* \"#utility.yul\":1428:1505   */\n      swap2\n      swap1\n      pop\n      jump\t// out\n        /* \"#utility.yul\":1511:1691   */\n    tag_46:\n        /* \"#utility.yul\":1559:1636   */\n      0x4e487b7100000000000000000000000000000000000000000000000000000000\n        /* \"#utility.yul\":1556:1557   */\n      0x00\n        /* \"#utility.yul\":1549:1637   */\n      mstore\n        /* \"#utility.yul\":1656:1660   */\n      0x11\n        /* \"#utility.yul\":1653:1654   */\n      0x04\n        /* \"#utility.yul\":1646:1661   */\n      mstore\n        /* \"#utility.yul\":1680:1684   */\n      0x24\n        /* \"#utility.yul\":1677:1678   */\n      0x00\n        /* \"#utility.yul\":1670:1685   */\n      revert\n        /* \"#utility.yul\":1820:1937   */\n    tag_31:\n        /* \"#utility.yul\":1929:1930   */\n      0x00\n        /* \"#utility.yul\":1926:1927   */\n      dup1\n        /* \"#utility.yul\":1919:1931   */\n      revert\n        /* \"#utility.yul\":1943:2065   */\n    tag_27:\n        /* \"#utility.yul\":2016:2040   */\n      tag_58\n        /* \"#utility.yul\":2034:2039   */\n      dup2\n        /* \"#utility.yul\":2016:2040   */\n      tag_36\n      jump\t// in\n    tag_58:\n        /* \"#utility.yul\":2009:2014   */\n      dup2\n        /* \"#utility.yul\":2006:2041   */\n      eq\n        /* \"#utility.yul\":1996:2059   */\n      tag_59\n      jumpi\n        /* \"#utility.yul\":2055:2056   */\n      0x00\n        /* \"#utility.yul\":2052:2053   */\n      dup1\n        /* \"#utility.yul\":2045:2057   */\n      revert\n        /* \"#utility.yul\":1996:2059   */\n    tag_59:\n        /* \"#utility.yul\":1943:2065   */\n      pop\n      jump\t// out\n\n    auxdata: 0xa2646970667358221220524267df098bf59152a3ad237f909a471d16568bdfd89eb903f7c59b227f4d8f64736f6c63430008070033\n}\n",
				"bytecode": {
					"linkReferences": {},
					"object": "608060405234801561001057600080fd5b50610300806100206000396000f3fe6080604052600436106100345760003560e01c80632e1a7d4d14610039578063c71daccb14610055578063d0e30db014610080575b600080fd5b610053600480360381019061004e9190610194565b61008a565b005b34801561006157600080fd5b5061006a6100e2565b60405161007791906101d0565b60405180910390f35b610088610128565b005b346000803373ffffffffffffffffffffffffffffffffffffffff1673ffffffffffffffffffffffffffffffffffffffff16815260200190815260200160002060008282546100d89190610241565b9250508190555050565b60008060003373ffffffffffffffffffffffffffffffffffffffff1673ffffffffffffffffffffffffffffffffffffffff16815260200190815260200160002054905090565b346000803373ffffffffffffffffffffffffffffffffffffffff1673ffffffffffffffffffffffffffffffffffffffff168152602001908152602001600020600082825461017691906101eb565b92505081905550565b60008135905061018e816102b3565b92915050565b6000602082840312156101aa576101a96102ae565b5b60006101b88482850161017f565b91505092915050565b6101ca81610275565b82525050565b60006020820190506101e560008301846101c1565b92915050565b60006101f682610275565b915061020183610275565b9250827fffffffffffffffffffffffffffffffffffffffffffffffffffffffffffffffff038211156102365761023561027f565b5b828201905092915050565b600061024c82610275565b915061025783610275565b92508282101561026a5761026961027f565b5b828203905092915050565b6000819050919050565b7f4e487b7100000000000000000000000000000000000000000000000000000000600052601160045260246000fd5b600080fd5b6102bc81610275565b81146102c757600080fd5b5056fea2646970667358221220524267df098bf59152a3ad237f909a471d16568bdfd89eb903f7c59b227f4d8f64736f6c63430008070033",
					"opcodes": "PUSH1 0x80 PUSH1 0x40 MSTORE CALLVALUE DUP1 ISZERO PUSH2 0x10 JUMPI PUSH1 0x0 DUP1 REVERT JUMPDEST POP PUSH2 0x300 DUP1 PUSH2 0x20 PUSH1 0x0 CODECOPY PUSH1 0x0 RETURN INVALID PUSH1 0x80 PUSH1 0x40 MSTORE PUSH1 0x4 CALLDATASIZE LT PUSH2 0x34 JUMPI PUSH1 0x0 CALLDATALOAD PUSH1 0xE0 SHR DUP1 PUSH4 0x2E1A7D4D EQ PUSH2 0x39 JUMPI DUP1 PUSH4 0xC71DACCB EQ PUSH2 0x55 JUMPI DUP1 PUSH4 0xD0E30DB0 EQ PUSH2 0x80 JUMPI JUMPDEST PUSH1 0x0 DUP1 REVERT JUMPDEST PUSH2 0x53 PUSH1 0x4 DUP1 CALLDATASIZE SUB DUP2 ADD SWAP1 PUSH2 0x4E SWAP2 SWAP1 PUSH2 0x194 JUMP JUMPDEST PUSH2 0x8A JUMP JUMPDEST STOP JUMPDEST CALLVALUE DUP1 ISZERO PUSH2 0x61 JUMPI PUSH1 0x0 DUP1 REVERT JUMPDEST POP PUSH2 0x6A PUSH2 0xE2 JUMP JUMPDEST PUSH1 0x40 MLOAD PUSH2 0x77 SWAP2 SWAP1 PUSH2 0x1D0 JUMP JUMPDEST PUSH1 0x40 MLOAD DUP1 SWAP2 SUB SWAP1 RETURN JUMPDEST PUSH2 0x88 PUSH2 0x128 JUMP JUMPDEST STOP JUMPDEST CALLVALUE PUSH1 0x0 DUP1 CALLER PUSH20 0xFFFFFFFFFFFFFFFFFFFFFFFFFFFFFFFFFFFFFFFF AND PUSH20 0xFFFFFFFFFFFFFFFFFFFFFFFFFFFFFFFFFFFFFFFF AND DUP2 MSTORE PUSH1 0x20 ADD SWAP1 DUP2 MSTORE PUSH1 0x20 ADD PUSH1 0x0 KECCAK256 PUSH1 0x0 DUP3 DUP3 SLOAD PUSH2 0xD8 SWAP2 SWAP1 PUSH2 0x241 JUMP JUMPDEST SWAP3 POP POP DUP2 SWAP1 SSTORE POP POP JUMP JUMPDEST PUSH1 0x0 DUP1 PUSH1 0x0 CALLER PUSH20 0xFFFFFFFFFFFFFFFFFFFFFFFFFFFFFFFFFFFFFFFF AND PUSH20 0xFFFFFFFFFFFFFFFFFFFFFFFFFFFFFFFFFFFFFFFF AND DUP2 MSTORE PUSH1 0x20 ADD SWAP1 DUP2 MSTORE PUSH1 0x20 ADD PUSH1 0x0 KECCAK256 SLOAD SWAP1 POP SWAP1 JUMP JUMPDEST CALLVALUE PUSH1 0x0 DUP1 CALLER PUSH20 0xFFFFFFFFFFFFFFFFFFFFFFFFFFFFFFFFFFFFFFFF AND PUSH20 0xFFFFFFFFFFFFFFFFFFFFFFFFFFFFFFFFFFFFFFFF AND DUP2 MSTORE PUSH1 0x20 ADD SWAP1 DUP2 MSTORE PUSH1 0x20 ADD PUSH1 0x0 KECCAK256 PUSH1 0x0 DUP3 DUP3 SLOAD PUSH2 0x176 SWAP2 SWAP1 PUSH2 0x1EB JUMP JUMPDEST SWAP3 POP POP DUP2 SWAP1 SSTORE POP JUMP JUMPDEST PUSH1 0x0 DUP2 CALLDATALOAD SWAP1 POP PUSH2 0x18E DUP2 PUSH2 0x2B3 JUMP JUMPDEST SWAP3 SWAP2 POP POP JUMP JUMPDEST PUSH1 0x0 PUSH1 0x20 DUP3 DUP5 SUB SLT ISZERO PUSH2 0x1AA JUMPI PUSH2 0x1A9 PUSH2 0x2AE JUMP JUMPDEST JUMPDEST PUSH1 0x0 PUSH2 0x1B8 DUP5 DUP3 DUP6 ADD PUSH2 0x17F JUMP JUMPDEST SWAP2 POP POP SWAP3 SWAP2 POP POP JUMP JUMPDEST PUSH2 0x1CA DUP2 PUSH2 0x275 JUMP JUMPDEST DUP3 MSTORE POP POP JUMP JUMPDEST PUSH1 0x0 PUSH1 0x20 DUP3 ADD SWAP1 POP PUSH2 0x1E5 PUSH1 0x0 DUP4 ADD DUP5 PUSH2 0x1C1 JUMP JUMPDEST SWAP3 SWAP2 POP POP JUMP JUMPDEST PUSH1 0x0 PUSH2 0x1F6 DUP3 PUSH2 0x275 JUMP JUMPDEST SWAP2 POP PUSH2 0x201 DUP4 PUSH2 0x275 JUMP JUMPDEST SWAP3 POP DUP3 PUSH32 0xFFFFFFFFFFFFFFFFFFFFFFFFFFFFFFFFFFFFFFFFFFFFFFFFFFFFFFFFFFFFFFFF SUB DUP3 GT ISZERO PUSH2 0x236 JUMPI PUSH2 0x235 PUSH2 0x27F JUMP JUMPDEST JUMPDEST DUP3 DUP3 ADD SWAP1 POP SWAP3 SWAP2 POP POP JUMP JUMPDEST PUSH1 0x0 PUSH2 0x24C DUP3 PUSH2 0x275 JUMP JUMPDEST SWAP2 POP PUSH2 0x257 DUP4 PUSH2 0x275 JUMP JUMPDEST SWAP3 POP DUP3 DUP3 LT ISZERO PUSH2 0x26A JUMPI PUSH2 0x269 PUSH2 0x27F JUMP JUMPDEST JUMPDEST DUP3 DUP3 SUB SWAP1 POP SWAP3 SWAP2 POP POP JUMP JUMPDEST PUSH1 0x0 DUP2 SWAP1 POP SWAP2 SWAP1 POP JUMP JUMPDEST PUSH32 0x4E487B7100000000000000000000000000000000000000000000000000000000 PUSH1 0x0 MSTORE PUSH1 0x11 PUSH1 0x4 MSTORE PUSH1 0x24 PUSH1 0x0 REVERT JUMPDEST PUSH1 0x0 DUP1 REVERT JUMPDEST PUSH2 0x2BC DUP2 PUSH2 0x275 JUMP JUMPDEST DUP2 EQ PUSH2 0x2C7 JUMPI PUSH1 0x0 DUP1 REVERT JUMPDEST POP JUMP INVALID LOG2 PUSH5 0x6970667358 0x22 SLT KECCAK256 MSTORE TIMESTAMP PUSH8 0xDF098BF59152A3AD 0x23 PUSH32 0x909A471D16568BDFD89EB903F7C59B227F4D8F64736F6C634300080700330000 "
				},
				"gasEstimates": {
					"creation": {
						"codeDepositCost": "153600",
						"executionCost": "196",
						"totalCost": "153796"
					},
					"external": {
						"checkBalance()": "2526",
						"deposit()": "infinite",
						"withdraw(uint256)": "infinite"
					}
				},
				"methodIdentifiers": {
					"checkBalance()": "c71daccb",
					"deposit()": "d0e30db0",
					"withdraw(uint256)": "2e1a7d4d"
				}
			},
			"storageLayout": {
				"storage": [
					{
						"astId": 5,
						"contract": "Bank.sol:Bank",
						"label": "_balances",
						"offset": 0,
						"slot": "0",
						"type": "t_mapping(t_address,t_uint256)"
					}
				],
				"types": {
					"t_address": {
						"encoding": "inplace",
						"label": "address",
						"numberOfBytes": "20"
					},
					"t_mapping(t_address,t_uint256)": {
						"encoding": "mapping",
						"key": "t_address",
						"label": "mapping(address => uint256)",
						"numberOfBytes": "32",
						"value": "t_uint256"
					},
					"t_uint256": {
						"encoding": "inplace",
						"label": "uint256",
						"numberOfBytes": "32"
					}
				}
			},
			"userdoc": {
				"kind": "user",
				"methods": {},
				"version": 1
			}
		}
	}
}