{
	"Bank.sol": {
		"Bank": {
			"abi": [
				{
					"inputs": [],
					"name": "checkBalance",
					"outputs": [
						{
							"internalType": "uint256",
							"name": "balance",
							"type": "uint256"
						}
					],
					"stateMutability": "view",
					"type": "function"
				},
				{
					"inputs": [
						{
							"internalType": "uint256",
							"name": "amount",
							"type": "uint256"
						}
					],
					"name": "deposit",
					"outputs": [],
					"stateMutability": "nonpayable",
					"type": "function"
				},
				{
					"inputs": [
						{
							"internalType": "uint256",
							"name": "amount",
							"type": "uint256"
						}
					],
					"name": "withdraw",
					"outputs": [],
					"stateMutability": "nonpayable",
					"type": "function"
				}
			],
			"devdoc": {
				"kind": "dev",
				"methods": {},
				"version": 1
			},
			"evm": {
				"assembly": "    /* \"Bank.sol\":58:409  contract Bank {... */\n  mstore(0x40, 0x80)\n  callvalue\n  dup1\n  iszero\n  tag_1\n  jumpi\n  0x00\n  dup1\n  revert\ntag_1:\n  pop\n  dataSize(sub_0)\n  dup1\n  dataOffset(sub_0)\n  0x00\n  codecopy\n  0x00\n  return\nstop\n\nsub_0: assembly {\n        /* \"Bank.sol\":58:409  contract Bank {... */\n      mstore(0x40, 0x80)\n      callvalue\n      dup1\n      iszero\n      tag_1\n      jumpi\n      0x00\n      dup1\n      revert\n    tag_1:\n      pop\n      jumpi(tag_2, lt(calldatasize, 0x04))\n      shr(0xe0, calldataload(0x00))\n      dup1\n      0x2e1a7d4d\n      eq\n      tag_3\n      jumpi\n      dup1\n      0xb6b55f25\n      eq\n      tag_4\n      jumpi\n      dup1\n      0xc71daccb\n      eq\n      tag_5\n      jumpi\n    tag_2:\n      0x00\n      dup1\n      revert\n        /* \"Bank.sol\":176:311  function withdraw(uint amount) public {... */\n    tag_3:\n      tag_6\n      0x04\n      dup1\n      calldatasize\n      sub\n      dup2\n      add\n      swap1\n      tag_7\n      swap2\n      swap1\n      tag_8\n      jump\t// in\n    tag_7:\n      tag_9\n      jump\t// in\n    tag_6:\n      stop\n        /* \"Bank.sol\":98:170  function deposit(uint amount) public {... */\n    tag_4:\n      tag_10\n      0x04\n      dup1\n      calldatasize\n      sub\n      dup2\n      add\n      swap1\n      tag_11\n      swap2\n      swap1\n      tag_8\n      jump\t// in\n    tag_11:\n      tag_12\n      jump\t// in\n    tag_10:\n      stop\n        /* \"Bank.sol\":317:407  function checkBalance() public view returns(uint balance) {... */\n    tag_5:\n      tag_13\n      tag_14\n      jump\t// in\n    tag_13:\n      mload(0x40)\n      tag_15\n      swap2\n      swap1\n      tag_16\n      jump\t// in\n    tag_15:\n      mload(0x40)\n      dup1\n      swap2\n      sub\n      swap1\n      return\n        /* \"Bank.sol\":176:311  function withdraw(uint amount) public {... */\n    tag_9:\n        /* \"Bank.sol\":242:250  _balance */\n      sload(0x00)\n        /* \"Bank.sol\":232:238  amount */\n      dup2\n        /* \"Bank.sol\":232:250  amount <= _balance */\n      gt\n      iszero\n        /* \"Bank.sol\":224:276  require(amount <= _balance, \"balance is not enough\") */\n      tag_18\n      jumpi\n      mload(0x40)\n      0x08c379a000000000000000000000000000000000000000000000000000000000\n      dup2\n      mstore\n      0x04\n      add\n      tag_19\n      swap1\n      tag_20\n      jump\t// in\n    tag_19:\n      mload(0x40)\n      dup1\n      swap2\n      sub\n      swap1\n      revert\n    tag_18:\n        /* \"Bank.sol\":298:304  amount */\n      dup1\n        /* \"Bank.sol\":286:294  _balance */\n      0x00\n      dup1\n        /* \"Bank.sol\":286:304  _balance -= amount */\n      dup3\n      dup3\n      sload\n      tag_21\n      swap2\n      swap1\n      tag_22\n      jump\t// in\n    tag_21:\n      swap3\n      pop\n      pop\n      dup2\n      swap1\n      sstore\n      pop\n        /* \"Bank.sol\":176:311  function withdraw(uint amount) public {... */\n      pop\n      jump\t// out\n        /* \"Bank.sol\":98:170  function deposit(uint amount) public {... */\n    tag_12:\n        /* \"Bank.sol\":157:163  amount */\n      dup1\n        /* \"Bank.sol\":145:153  _balance */\n      0x00\n      dup1\n        /* \"Bank.sol\":145:163  _balance += amount */\n      dup3\n      dup3\n      sload\n      tag_24\n      swap2\n      swap1\n      tag_25\n      jump\t// in\n    tag_24:\n      swap3\n      pop\n      pop\n      dup2\n      swap1\n      sstore\n      pop\n        /* \"Bank.sol\":98:170  function deposit(uint amount) public {... */\n      pop\n      jump\t// out\n        /* \"Bank.sol\":317:407  function checkBalance() public view returns(uint balance) {... */\n    tag_14:\n        /* \"Bank.sol\":361:373  uint balance */\n      0x00\n        /* \"Bank.sol\":392:400  _balance */\n      dup1\n      sload\n        /* \"Bank.sol\":385:400  return _balance */\n      swap1\n      pop\n        /* \"Bank.sol\":317:407  function checkBalance() public view returns(uint balance) {... */\n      swap1\n      jump\t// out\n        /* \"#utility.yul\":7:146   */\n    tag_28:\n        /* \"#utility.yul\":53:58   */\n      0x00\n        /* \"#utility.yul\":91:97   */\n      dup2\n        /* \"#utility.yul\":78:98   */\n      calldataload\n        /* \"#utility.yul\":69:98   */\n      swap1\n      pop\n        /* \"#utility.yul\":107:140   */\n      tag_30\n        /* \"#utility.yul\":134:139   */\n      dup2\n        /* \"#utility.yul\":107:140   */\n      tag_31\n      jump\t// in\n    tag_30:\n        /* \"#utility.yul\":7:146   */\n      swap3\n      swap2\n      pop\n      pop\n      jump\t// out\n        /* \"#utility.yul\":152:481   */\n    tag_8:\n        /* \"#utility.yul\":211:217   */\n      0x00\n        /* \"#utility.yul\":260:262   */\n      0x20\n        /* \"#utility.yul\":248:257   */\n      dup3\n        /* \"#utility.yul\":239:246   */\n      dup5\n        /* \"#utility.yul\":235:258   */\n      sub\n        /* \"#utility.yul\":231:263   */\n      slt\n        /* \"#utility.yul\":228:347   */\n      iszero\n      tag_33\n      jumpi\n        /* \"#utility.yul\":266:345   */\n      tag_34\n      tag_35\n      jump\t// in\n    tag_34:\n        /* \"#utility.yul\":228:347   */\n    tag_33:\n        /* \"#utility.yul\":386:387   */\n      0x00\n        /* \"#utility.yul\":411:464   */\n      tag_36\n        /* \"#utility.yul\":456:463   */\n      dup5\n        /* \"#utility.yul\":447:453   */\n      dup3\n        /* \"#utility.yul\":436:445   */\n      dup6\n        /* \"#utility.yul\":432:454   */\n      add\n        /* \"#utility.yul\":411:464   */\n      tag_28\n      jump\t// in\n    tag_36:\n        /* \"#utility.yul\":401:464   */\n      swap2\n      pop\n        /* \"#utility.yul\":357:474   */\n      pop\n        /* \"#utility.yul\":152:481   */\n      swap3\n      swap2\n      pop\n      pop\n      jump\t// out\n        /* \"#utility.yul\":487:853   */\n    tag_37:\n        /* \"#utility.yul\":629:632   */\n      0x00\n        /* \"#utility.yul\":650:717   */\n      tag_39\n        /* \"#utility.yul\":714:716   */\n      0x15\n        /* \"#utility.yul\":709:712   */\n      dup4\n        /* \"#utility.yul\":650:717   */\n      tag_40\n      jump\t// in\n    tag_39:\n        /* \"#utility.yul\":643:717   */\n      swap2\n      pop\n        /* \"#utility.yul\":726:819   */\n      tag_41\n        /* \"#utility.yul\":815:818   */\n      dup3\n        /* \"#utility.yul\":726:819   */\n      tag_42\n      jump\t// in\n    tag_41:\n        /* \"#utility.yul\":844:846   */\n      0x20\n        /* \"#utility.yul\":839:842   */\n      dup3\n        /* \"#utility.yul\":835:847   */\n      add\n        /* \"#utility.yul\":828:847   */\n      swap1\n      pop\n        /* \"#utility.yul\":487:853   */\n      swap2\n      swap1\n      pop\n      jump\t// out\n        /* \"#utility.yul\":859:977   */\n    tag_43:\n        /* \"#utility.yul\":946:970   */\n      tag_45\n        /* \"#utility.yul\":964:969   */\n      dup2\n        /* \"#utility.yul\":946:970   */\n      tag_46\n      jump\t// in\n    tag_45:\n        /* \"#utility.yul\":941:944   */\n      dup3\n        /* \"#utility.yul\":934:971   */\n      mstore\n        /* \"#utility.yul\":859:977   */\n      pop\n      pop\n      jump\t// out\n        /* \"#utility.yul\":983:1402   */\n    tag_20:\n        /* \"#utility.yul\":1149:1153   */\n      0x00\n        /* \"#utility.yul\":1187:1189   */\n      0x20\n        /* \"#utility.yul\":1176:1185   */\n      dup3\n        /* \"#utility.yul\":1172:1190   */\n      add\n        /* \"#utility.yul\":1164:1190   */\n      swap1\n      pop\n        /* \"#utility.yul\":1236:1245   */\n      dup2\n        /* \"#utility.yul\":1230:1234   */\n      dup2\n        /* \"#utility.yul\":1226:1246   */\n      sub\n        /* \"#utility.yul\":1222:1223   */\n      0x00\n        /* \"#utility.yul\":1211:1220   */\n      dup4\n        /* \"#utility.yul\":1207:1224   */\n      add\n        /* \"#utility.yul\":1200:1247   */\n      mstore\n        /* \"#utility.yul\":1264:1395   */\n      tag_48\n        /* \"#utility.yul\":1390:1394   */\n      dup2\n        /* \"#utility.yul\":1264:1395   */\n      tag_37\n      jump\t// in\n    tag_48:\n        /* \"#utility.yul\":1256:1395   */\n      swap1\n      pop\n        /* \"#utility.yul\":983:1402   */\n      swap2\n      swap1\n      pop\n      jump\t// out\n        /* \"#utility.yul\":1408:1630   */\n    tag_16:\n        /* \"#utility.yul\":1501:1505   */\n      0x00\n        /* \"#utility.yul\":1539:1541   */\n      0x20\n        /* \"#utility.yul\":1528:1537   */\n      dup3\n        /* \"#utility.yul\":1524:1542   */\n      add\n        /* \"#utility.yul\":1516:1542   */\n      swap1\n      pop\n        /* \"#utility.yul\":1552:1623   */\n      tag_50\n        /* \"#utility.yul\":1620:1621   */\n      0x00\n        /* \"#utility.yul\":1609:1618   */\n      dup4\n        /* \"#utility.yul\":1605:1622   */\n      add\n        /* \"#utility.yul\":1596:1602   */\n      dup5\n        /* \"#utility.yul\":1552:1623   */\n      tag_43\n      jump\t// in\n    tag_50:\n        /* \"#utility.yul\":1408:1630   */\n      swap3\n      swap2\n      pop\n      pop\n      jump\t// out\n        /* \"#utility.yul\":1717:1886   */\n    tag_40:\n        /* \"#utility.yul\":1801:1812   */\n      0x00\n        /* \"#utility.yul\":1835:1841   */\n      dup3\n        /* \"#utility.yul\":1830:1833   */\n      dup3\n        /* \"#utility.yul\":1823:1842   */\n      mstore\n        /* \"#utility.yul\":1875:1879   */\n      0x20\n        /* \"#utility.yul\":1870:1873   */\n      dup3\n        /* \"#utility.yul\":1866:1880   */\n      add\n        /* \"#utility.yul\":1851:1880   */\n      swap1\n      pop\n        /* \"#utility.yul\":1717:1886   */\n      swap3\n      swap2\n      pop\n      pop\n      jump\t// out\n        /* \"#utility.yul\":1892:2197   */\n    tag_25:\n        /* \"#utility.yul\":1932:1935   */\n      0x00\n        /* \"#utility.yul\":1951:1971   */\n      tag_55\n        /* \"#utility.yul\":1969:1970   */\n      dup3\n        /* \"#utility.yul\":1951:1971   */\n      tag_46\n      jump\t// in\n    tag_55:\n        /* \"#utility.yul\":1946:1971   */\n      swap2\n      pop\n        /* \"#utility.yul\":1985:2005   */\n      tag_56\n        /* \"#utility.yul\":2003:2004   */\n      dup4\n        /* \"#utility.yul\":1985:2005   */\n      tag_46\n      jump\t// in\n    tag_56:\n        /* \"#utility.yul\":1980:2005   */\n      swap3\n      pop\n        /* \"#utility.yul\":2139:2140   */\n      dup3\n        /* \"#utility.yul\":2071:2137   */\n      0xffffffffffffffffffffffffffffffffffffffffffffffffffffffffffffffff\n        /* \"#utility.yul\":2067:2141   */\n      sub\n        /* \"#utility.yul\":2064:2065   */\n      dup3\n        /* \"#utility.yul\":2061:2142   */\n      gt\n        /* \"#utility.yul\":2058:2165   */\n      iszero\n      tag_57\n      jumpi\n        /* \"#utility.yul\":2145:2163   */\n      tag_58\n      tag_59\n      jump\t// in\n    tag_58:\n        /* \"#utility.yul\":2058:2165   */\n    tag_57:\n        /* \"#utility.yul\":2189:2190   */\n      dup3\n        /* \"#utility.yul\":2186:2187   */\n      dup3\n        /* \"#utility.yul\":2182:2191   */\n      add\n        /* \"#utility.yul\":2175:2191   */\n      swap1\n      pop\n        /* \"#utility.yul\":1892:2197   */\n      swap3\n      swap2\n      pop\n      pop\n      jump\t// out\n        /* \"#utility.yul\":2203:2394   */\n    tag_22:\n        /* \"#utility.yul\":2243:2247   */\n      0x00\n        /* \"#utility.yul\":2263:2283   */\n      tag_61\n        /* \"#utility.yul\":2281:2282   */\n      dup3\n        /* \"#utility.yul\":2263:2283   */\n      tag_46\n      jump\t// in\n    tag_61:\n        /* \"#utility.yul\":2258:2283   */\n      swap2\n      pop\n        /* \"#utility.yul\":2297:2317   */\n      tag_62\n        /* \"#utility.yul\":2315:2316   */\n      dup4\n        /* \"#utility.yul\":2297:2317   */\n      tag_46\n      jump\t// in\n    tag_62:\n        /* \"#utility.yul\":2292:2317   */\n      swap3\n      pop\n        /* \"#utility.yul\":2336:2337   */\n      dup3\n        /* \"#utility.yul\":2333:2334   */\n      dup3\n        /* \"#utility.yul\":2330:2338   */\n      lt\n        /* \"#utility.yul\":2327:2361   */\n      iszero\n      tag_63\n      jumpi\n        /* \"#utility.yul\":2341:2359   */\n      tag_64\n      tag_59\n      jump\t// in\n    tag_64:\n        /* \"#utility.yul\":2327:2361   */\n    tag_63:\n        /* \"#utility.yul\":2386:2387   */\n      dup3\n        /* \"#utility.yul\":2383:2384   */\n      dup3\n        /* \"#utility.yul\":2379:2388   */\n      sub\n        /* \"#utility.yul\":2371:2388   */\n      swap1\n      pop\n        /* \"#utility.yul\":2203:2394   */\n      swap3\n      swap2\n      pop\n      pop\n      jump\t// out\n        /* \"#utility.yul\":2400:2477   */\n    tag_46:\n        /* \"#utility.yul\":2437:2444   */\n      0x00\n        /* \"#utility.yul\":2466:2471   */\n      dup2\n        /* \"#utility.yul\":2455:2471   */\n      swap1\n      pop\n        /* \"#utility.yul\":2400:2477   */\n      swap2\n      swap1\n      pop\n      jump\t// out\n        /* \"#utility.yul\":2483:2663   */\n    tag_59:\n        /* \"#utility.yul\":2531:2608   */\n      0x4e487b7100000000000000000000000000000000000000000000000000000000\n        /* \"#utility.yul\":2528:2529   */\n      0x00\n        /* \"#utility.yul\":2521:2609   */\n      mstore\n        /* \"#utility.yul\":2628:2632   */\n      0x11\n        /* \"#utility.yul\":2625:2626   */\n      0x04\n        /* \"#utility.yul\":2618:2633   */\n      mstore\n        /* \"#utility.yul\":2652:2656   */\n      0x24\n        /* \"#utility.yul\":2649:2650   */\n      0x00\n        /* \"#utility.yul\":2642:2657   */\n      revert\n        /* \"#utility.yul\":2792:2909   */\n    tag_35:\n        /* \"#utility.yul\":2901:2902   */\n      0x00\n        /* \"#utility.yul\":2898:2899   */\n      dup1\n        /* \"#utility.yul\":2891:2903   */\n      revert\n        /* \"#utility.yul\":2915:3086   */\n    tag_42:\n        /* \"#utility.yul\":3055:3078   */\n      0x62616c616e6365206973206e6f7420656e6f7567680000000000000000000000\n        /* \"#utility.yul\":3051:3052   */\n      0x00\n        /* \"#utility.yul\":3043:3049   */\n      dup3\n        /* \"#utility.yul\":3039:3053   */\n      add\n        /* \"#utility.yul\":3032:3079   */\n      mstore\n        /* \"#utility.yul\":2915:3086   */\n      pop\n      jump\t// out\n        /* \"#utility.yul\":3092:3214   */\n    tag_31:\n        /* \"#utility.yul\":3165:3189   */\n      tag_72\n        /* \"#utility.yul\":3183:3188   */\n      dup2\n        /* \"#utility.yul\":3165:3189   */\n      tag_46\n      jump\t// in\n    tag_72:\n        /* \"#utility.yul\":3158:3163   */\n      dup2\n        /* \"#utility.yul\":3155:3190   */\n      eq\n        /* \"#utility.yul\":3145:3208   */\n      tag_73\n      jumpi\n        /* \"#utility.yul\":3204:3205   */\n      0x00\n        /* \"#utility.yul\":3201:3202   */\n      dup1\n        /* \"#utility.yul\":3194:3206   */\n      revert\n        /* \"#utility.yul\":3145:3208   */\n    tag_73:\n        /* \"#utility.yul\":3092:3214   */\n      pop\n      jump\t// out\n\n    auxdata: 0xa26469706673582212200d28ed72998a9c6d721f577751728dc6cebcceb2763a33fd125e94fe551b3c0364736f6c63430008070033\n}\n",
				"bytecode": {
					"linkReferences": {},
					"object": "608060405234801561001057600080fd5b5061031e806100206000396000f3fe608060405234801561001057600080fd5b50600436106100415760003560e01c80632e1a7d4d14610046578063b6b55f2514610062578063c71daccb1461007e575b600080fd5b610060600480360381019061005b9190610135565b61009c565b005b61007c60048036038101906100779190610135565b6100fc565b005b610086610117565b60405161009391906101b4565b60405180910390f35b6000548111156100e1576040517f08c379a00000000000000000000000000000000000000000000000000000000081526004016100d890610194565b60405180910390fd5b806000808282546100f29190610236565b9250508190555050565b8060008082825461010d91906101e0565b9250508190555050565b60008054905090565b60008135905061012f816102d1565b92915050565b60006020828403121561014b5761014a6102a3565b5b600061015984828501610120565b91505092915050565b600061016f6015836101cf565b915061017a826102a8565b602082019050919050565b61018e8161026a565b82525050565b600060208201905081810360008301526101ad81610162565b9050919050565b60006020820190506101c96000830184610185565b92915050565b600082825260208201905092915050565b60006101eb8261026a565b91506101f68361026a565b9250827fffffffffffffffffffffffffffffffffffffffffffffffffffffffffffffffff0382111561022b5761022a610274565b5b828201905092915050565b60006102418261026a565b915061024c8361026a565b92508282101561025f5761025e610274565b5b828203905092915050565b6000819050919050565b7f4e487b7100000000000000000000000000000000000000000000000000000000600052601160045260246000fd5b600080fd5b7f62616c616e6365206973206e6f7420656e6f7567680000000000000000000000600082015250565b6102da8161026a565b81146102e557600080fd5b5056fea26469706673582212200d28ed72998a9c6d721f577751728dc6cebcceb2763a33fd125e94fe551b3c0364736f6c63430008070033",
					"opcodes": "PUSH1 0x80 PUSH1 0x40 MSTORE CALLVALUE DUP1 ISZERO PUSH2 0x10 JUMPI PUSH1 0x0 DUP1 REVERT JUMPDEST POP PUSH2 0x31E DUP1 PUSH2 0x20 PUSH1 0x0 CODECOPY PUSH1 0x0 RETURN INVALID PUSH1 0x80 PUSH1 0x40 MSTORE CALLVALUE DUP1 ISZERO PUSH2 0x10 JUMPI PUSH1 0x0 DUP1 REVERT JUMPDEST POP PUSH1 0x4 CALLDATASIZE LT PUSH2 0x41 JUMPI PUSH1 0x0 CALLDATALOAD PUSH1 0xE0 SHR DUP1 PUSH4 0x2E1A7D4D EQ PUSH2 0x46 JUMPI DUP1 PUSH4 0xB6B55F25 EQ PUSH2 0x62 JUMPI DUP1 PUSH4 0xC71DACCB EQ PUSH2 0x7E JUMPI JUMPDEST PUSH1 0x0 DUP1 REVERT JUMPDEST PUSH2 0x60 PUSH1 0x4 DUP1 CALLDATASIZE SUB DUP2 ADD SWAP1 PUSH2 0x5B SWAP2 SWAP1 PUSH2 0x135 JUMP JUMPDEST PUSH2 0x9C JUMP JUMPDEST STOP JUMPDEST PUSH2 0x7C PUSH1 0x4 DUP1 CALLDATASIZE SUB DUP2 ADD SWAP1 PUSH2 0x77 SWAP2 SWAP1 PUSH2 0x135 JUMP JUMPDEST PUSH2 0xFC JUMP JUMPDEST STOP JUMPDEST PUSH2 0x86 PUSH2 0x117 JUMP JUMPDEST PUSH1 0x40 MLOAD PUSH2 0x93 SWAP2 SWAP1 PUSH2 0x1B4 JUMP JUMPDEST PUSH1 0x40 MLOAD DUP1 SWAP2 SUB SWAP1 RETURN JUMPDEST PUSH1 0x0 SLOAD DUP2 GT ISZERO PUSH2 0xE1 JUMPI PUSH1 0x40 MLOAD PUSH32 0x8C379A000000000000000000000000000000000000000000000000000000000 DUP2 MSTORE PUSH1 0x4 ADD PUSH2 0xD8 SWAP1 PUSH2 0x194 JUMP JUMPDEST PUSH1 0x40 MLOAD DUP1 SWAP2 SUB SWAP1 REVERT JUMPDEST DUP1 PUSH1 0x0 DUP1 DUP3 DUP3 SLOAD PUSH2 0xF2 SWAP2 SWAP1 PUSH2 0x236 JUMP JUMPDEST SWAP3 POP POP DUP2 SWAP1 SSTORE POP POP JUMP JUMPDEST DUP1 PUSH1 0x0 DUP1 DUP3 DUP3 SLOAD PUSH2 0x10D SWAP2 SWAP1 PUSH2 0x1E0 JUMP JUMPDEST SWAP3 POP POP DUP2 SWAP1 SSTORE POP POP JUMP JUMPDEST PUSH1 0x0 DUP1 SLOAD SWAP1 POP SWAP1 JUMP JUMPDEST PUSH1 0x0 DUP2 CALLDATALOAD SWAP1 POP PUSH2 0x12F DUP2 PUSH2 0x2D1 JUMP JUMPDEST SWAP3 SWAP2 POP POP JUMP JUMPDEST PUSH1 0x0 PUSH1 0x20 DUP3 DUP5 SUB SLT ISZERO PUSH2 0x14B JUMPI PUSH2 0x14A PUSH2 0x2A3 JUMP JUMPDEST JUMPDEST PUSH1 0x0 PUSH2 0x159 DUP5 DUP3 DUP6 ADD PUSH2 0x120 JUMP JUMPDEST SWAP2 POP POP SWAP3 SWAP2 POP POP JUMP JUMPDEST PUSH1 0x0 PUSH2 0x16F PUSH1 0x15 DUP4 PUSH2 0x1CF JUMP JUMPDEST SWAP2 POP PUSH2 0x17A DUP3 PUSH2 0x2A8 JUMP JUMPDEST PUSH1 0x20 DUP3 ADD SWAP1 POP SWAP2 SWAP1 POP JUMP JUMPDEST PUSH2 0x18E DUP2 PUSH2 0x26A JUMP JUMPDEST DUP3 MSTORE POP POP JUMP JUMPDEST PUSH1 0x0 PUSH1 0x20 DUP3 ADD SWAP1 POP DUP2 DUP2 SUB PUSH1 0x0 DUP4 ADD MSTORE PUSH2 0x1AD DUP2 PUSH2 0x162 JUMP JUMPDEST SWAP1 POP SWAP2 SWAP1 POP JUMP JUMPDEST PUSH1 0x0 PUSH1 0x20 DUP3 ADD SWAP1 POP PUSH2 0x1C9 PUSH1 0x0 DUP4 ADD DUP5 PUSH2 0x185 JUMP JUMPDEST SWAP3 SWAP2 POP POP JUMP JUMPDEST PUSH1 0x0 DUP3 DUP3 MSTORE PUSH1 0x20 DUP3 ADD SWAP1 POP SWAP3 SWAP2 POP POP JUMP JUMPDEST PUSH1 0x0 PUSH2 0x1EB DUP3 PUSH2 0x26A JUMP JUMPDEST SWAP2 POP PUSH2 0x1F6 DUP4 PUSH2 0x26A JUMP JUMPDEST SWAP3 POP DUP3 PUSH32 0xFFFFFFFFFFFFFFFFFFFFFFFFFFFFFFFFFFFFFFFFFFFFFFFFFFFFFFFFFFFFFFFF SUB DUP3 GT ISZERO PUSH2 0x22B JUMPI PUSH2 0x22A PUSH2 0x274 JUMP JUMPDEST JUMPDEST DUP3 DUP3 ADD SWAP1 POP SWAP3 SWAP2 POP POP JUMP JUMPDEST PUSH1 0x0 PUSH2 0x241 DUP3 PUSH2 0x26A JUMP JUMPDEST SWAP2 POP PUSH2 0x24C DUP4 PUSH2 0x26A JUMP JUMPDEST SWAP3 POP DUP3 DUP3 LT ISZERO PUSH2 0x25F JUMPI PUSH2 0x25E PUSH2 0x274 JUMP JUMPDEST JUMPDEST DUP3 DUP3 SUB SWAP1 POP SWAP3 SWAP2 POP POP JUMP JUMPDEST PUSH1 0x0 DUP2 SWAP1 POP SWAP2 SWAP1 POP JUMP JUMPDEST PUSH32 0x4E487B7100000000000000000000000000000000000000000000000000000000 PUSH1 0x0 MSTORE PUSH1 0x11 PUSH1 0x4 MSTORE PUSH1 0x24 PUSH1 0x0 REVERT JUMPDEST PUSH1 0x0 DUP1 REVERT JUMPDEST PUSH32 0x62616C616E6365206973206E6F7420656E6F7567680000000000000000000000 PUSH1 0x0 DUP3 ADD MSTORE POP JUMP JUMPDEST PUSH2 0x2DA DUP2 PUSH2 0x26A JUMP JUMPDEST DUP2 EQ PUSH2 0x2E5 JUMPI PUSH1 0x0 DUP1 REVERT JUMPDEST POP JUMP INVALID LOG2 PUSH5 0x6970667358 0x22 SLT KECCAK256 0xD 0x28 0xED PUSH19 0x998A9C6D721F577751728DC6CEBCCEB2763A33 REVERT SLT 0x5E SWAP5 INVALID SSTORE SHL EXTCODECOPY SUB PUSH5 0x736F6C6343 STOP ADDMOD SMOD STOP CALLER "
				},
				"gasEstimates": {
					"creation": {
						"codeDepositCost": "159600",
						"executionCost": "202",
						"totalCost": "159802"
					},
					"external": {
						"checkBalance()": "2459",
						"deposit(uint256)": "infinite",
						"withdraw(uint256)": "infinite"
					}
				},
				"methodIdentifiers": {
					"checkBalance()": "c71daccb",
					"deposit(uint256)": "b6b55f25",
					"withdraw(uint256)": "2e1a7d4d"
				}
			},
			"storageLayout": {
				"storage": [
					{
						"astId": 3,
						"contract": "Bank.sol:Bank",
						"label": "_balance",
						"offset": 0,
						"slot": "0",
						"type": "t_uint256"
					}
				],
				"types": {
					"t_uint256": {
						"encoding": "inplace",
						"label": "uint256",
						"numberOfBytes": "32"
					}
				}
			},
			"userdoc": {
				"kind": "user",
				"methods": {},
				"version": 1
			}
		}
	}
}