{
	"Bank.sol": {
		"Bank": {
			"abi": [
				{
					"inputs": [],
					"name": "checkBalance",
					"outputs": [
						{
							"internalType": "uint256",
							"name": "balance",
							"type": "uint256"
						}
					],
					"stateMutability": "view",
					"type": "function"
				},
				{
					"inputs": [
						{
							"internalType": "uint256",
							"name": "amount",
							"type": "uint256"
						}
					],
					"name": "deposit",
					"outputs": [],
					"stateMutability": "nonpayable",
					"type": "function"
				},
				{
					"inputs": [
						{
							"internalType": "uint256",
							"name": "amount",
							"type": "uint256"
						}
					],
					"name": "withdraw",
					"outputs": [],
					"stateMutability": "nonpayable",
					"type": "function"
				}
			],
			"devdoc": {
				"kind": "dev",
				"methods": {},
				"version": 1
			},
			"evm": {
				"assembly": "    /* \"Bank.sol\":150:496  contract Bank {... */\n  mstore(0x40, 0x80)\n  callvalue\n  dup1\n  iszero\n  tag_1\n  jumpi\n  0x00\n  dup1\n  revert\ntag_1:\n  pop\n  dataSize(sub_0)\n  dup1\n  dataOffset(sub_0)\n  0x00\n  codecopy\n  0x00\n  return\nstop\n\nsub_0: assembly {\n        /* \"Bank.sol\":150:496  contract Bank {... */\n      mstore(0x40, 0x80)\n      callvalue\n      dup1\n      iszero\n      tag_1\n      jumpi\n      0x00\n      dup1\n      revert\n    tag_1:\n      pop\n      jumpi(tag_2, lt(calldatasize, 0x04))\n      shr(0xe0, calldataload(0x00))\n      dup1\n      0x2e1a7d4d\n      eq\n      tag_3\n      jumpi\n      dup1\n      0xb6b55f25\n      eq\n      tag_4\n      jumpi\n      dup1\n      0xc71daccb\n      eq\n      tag_5\n      jumpi\n    tag_2:\n      0x00\n      dup1\n      revert\n        /* \"Bank.sol\":312:398  function withdraw(uint amount) public {... */\n    tag_3:\n      tag_6\n      0x04\n      dup1\n      calldatasize\n      sub\n      dup2\n      add\n      swap1\n      tag_7\n      swap2\n      swap1\n      tag_8\n      jump\t// in\n    tag_7:\n      tag_9\n      jump\t// in\n    tag_6:\n      stop\n        /* \"Bank.sol\":221:306  function deposit(uint amount) public {... */\n    tag_4:\n      tag_10\n      0x04\n      dup1\n      calldatasize\n      sub\n      dup2\n      add\n      swap1\n      tag_11\n      swap2\n      swap1\n      tag_8\n      jump\t// in\n    tag_11:\n      tag_12\n      jump\t// in\n    tag_10:\n      stop\n        /* \"Bank.sol\":404:494  function checkBalance() public view returns(uint balance) {... */\n    tag_5:\n      tag_13\n      tag_14\n      jump\t// in\n    tag_13:\n      mload(0x40)\n      tag_15\n      swap2\n      swap1\n      tag_16\n      jump\t// in\n    tag_15:\n      mload(0x40)\n      dup1\n      swap2\n      sub\n      swap1\n      return\n        /* \"Bank.sol\":312:398  function withdraw(uint amount) public {... */\n    tag_9:\n        /* \"Bank.sol\":371:391  _balance.sub(amount) */\n      tag_18\n        /* \"Bank.sol\":384:390  amount */\n      dup2\n        /* \"Bank.sol\":371:379  _balance */\n      sload(0x00)\n        /* \"Bank.sol\":371:383  _balance.sub */\n      tag_19\n      swap1\n        /* \"Bank.sol\":371:391  _balance.sub(amount) */\n      swap2\n      swap1\n      0xffffffff\n      and\n      jump\t// in\n    tag_18:\n        /* \"Bank.sol\":360:368  _balance */\n      0x00\n        /* \"Bank.sol\":360:391  _balance = _balance.sub(amount) */\n      dup2\n      swap1\n      sstore\n      pop\n        /* \"Bank.sol\":312:398  function withdraw(uint amount) public {... */\n      pop\n      jump\t// out\n        /* \"Bank.sol\":221:306  function deposit(uint amount) public {... */\n    tag_12:\n        /* \"Bank.sol\":279:299  _balance.add(amount) */\n      tag_21\n        /* \"Bank.sol\":292:298  amount */\n      dup2\n        /* \"Bank.sol\":279:287  _balance */\n      sload(0x00)\n        /* \"Bank.sol\":279:291  _balance.add */\n      tag_22\n      swap1\n        /* \"Bank.sol\":279:299  _balance.add(amount) */\n      swap2\n      swap1\n      0xffffffff\n      and\n      jump\t// in\n    tag_21:\n        /* \"Bank.sol\":268:276  _balance */\n      0x00\n        /* \"Bank.sol\":268:299  _balance = _balance.add(amount) */\n      dup2\n      swap1\n      sstore\n      pop\n        /* \"Bank.sol\":221:306  function deposit(uint amount) public {... */\n      pop\n      jump\t// out\n        /* \"Bank.sol\":404:494  function checkBalance() public view returns(uint balance) {... */\n    tag_14:\n        /* \"Bank.sol\":448:460  uint balance */\n      0x00\n        /* \"Bank.sol\":479:487  _balance */\n      dup1\n      sload\n        /* \"Bank.sol\":472:487  return _balance */\n      swap1\n      pop\n        /* \"Bank.sol\":404:494  function checkBalance() public view returns(uint balance) {... */\n      swap1\n      jump\t// out\n        /* \"github.com/OpenZeppelin/openzeppelin-contracts/contracts/utils/math/SafeMath.sol\":3122:3218  function sub(uint256 a, uint256 b) internal pure returns (uint256) {... */\n    tag_19:\n        /* \"github.com/OpenZeppelin/openzeppelin-contracts/contracts/utils/math/SafeMath.sol\":3180:3187  uint256 */\n      0x00\n        /* \"github.com/OpenZeppelin/openzeppelin-contracts/contracts/utils/math/SafeMath.sol\":3210:3211  b */\n      dup2\n        /* \"github.com/OpenZeppelin/openzeppelin-contracts/contracts/utils/math/SafeMath.sol\":3206:3207  a */\n      dup4\n        /* \"github.com/OpenZeppelin/openzeppelin-contracts/contracts/utils/math/SafeMath.sol\":3206:3211  a - b */\n      tag_25\n      swap2\n      swap1\n      tag_26\n      jump\t// in\n    tag_25:\n        /* \"github.com/OpenZeppelin/openzeppelin-contracts/contracts/utils/math/SafeMath.sol\":3199:3211  return a - b */\n      swap1\n      pop\n        /* \"github.com/OpenZeppelin/openzeppelin-contracts/contracts/utils/math/SafeMath.sol\":3122:3218  function sub(uint256 a, uint256 b) internal pure returns (uint256) {... */\n      swap3\n      swap2\n      pop\n      pop\n      jump\t// out\n        /* \"github.com/OpenZeppelin/openzeppelin-contracts/contracts/utils/math/SafeMath.sol\":2755:2851  function add(uint256 a, uint256 b) internal pure returns (uint256) {... */\n    tag_22:\n        /* \"github.com/OpenZeppelin/openzeppelin-contracts/contracts/utils/math/SafeMath.sol\":2813:2820  uint256 */\n      0x00\n        /* \"github.com/OpenZeppelin/openzeppelin-contracts/contracts/utils/math/SafeMath.sol\":2843:2844  b */\n      dup2\n        /* \"github.com/OpenZeppelin/openzeppelin-contracts/contracts/utils/math/SafeMath.sol\":2839:2840  a */\n      dup4\n        /* \"github.com/OpenZeppelin/openzeppelin-contracts/contracts/utils/math/SafeMath.sol\":2839:2844  a + b */\n      tag_28\n      swap2\n      swap1\n      tag_29\n      jump\t// in\n    tag_28:\n        /* \"github.com/OpenZeppelin/openzeppelin-contracts/contracts/utils/math/SafeMath.sol\":2832:2844  return a + b */\n      swap1\n      pop\n        /* \"github.com/OpenZeppelin/openzeppelin-contracts/contracts/utils/math/SafeMath.sol\":2755:2851  function add(uint256 a, uint256 b) internal pure returns (uint256) {... */\n      swap3\n      swap2\n      pop\n      pop\n      jump\t// out\n        /* \"#utility.yul\":7:146   */\n    tag_31:\n        /* \"#utility.yul\":53:58   */\n      0x00\n        /* \"#utility.yul\":91:97   */\n      dup2\n        /* \"#utility.yul\":78:98   */\n      calldataload\n        /* \"#utility.yul\":69:98   */\n      swap1\n      pop\n        /* \"#utility.yul\":107:140   */\n      tag_33\n        /* \"#utility.yul\":134:139   */\n      dup2\n        /* \"#utility.yul\":107:140   */\n      tag_34\n      jump\t// in\n    tag_33:\n        /* \"#utility.yul\":7:146   */\n      swap3\n      swap2\n      pop\n      pop\n      jump\t// out\n        /* \"#utility.yul\":152:481   */\n    tag_8:\n        /* \"#utility.yul\":211:217   */\n      0x00\n        /* \"#utility.yul\":260:262   */\n      0x20\n        /* \"#utility.yul\":248:257   */\n      dup3\n        /* \"#utility.yul\":239:246   */\n      dup5\n        /* \"#utility.yul\":235:258   */\n      sub\n        /* \"#utility.yul\":231:263   */\n      slt\n        /* \"#utility.yul\":228:347   */\n      iszero\n      tag_36\n      jumpi\n        /* \"#utility.yul\":266:345   */\n      tag_37\n      tag_38\n      jump\t// in\n    tag_37:\n        /* \"#utility.yul\":228:347   */\n    tag_36:\n        /* \"#utility.yul\":386:387   */\n      0x00\n        /* \"#utility.yul\":411:464   */\n      tag_39\n        /* \"#utility.yul\":456:463   */\n      dup5\n        /* \"#utility.yul\":447:453   */\n      dup3\n        /* \"#utility.yul\":436:445   */\n      dup6\n        /* \"#utility.yul\":432:454   */\n      add\n        /* \"#utility.yul\":411:464   */\n      tag_31\n      jump\t// in\n    tag_39:\n        /* \"#utility.yul\":401:464   */\n      swap2\n      pop\n        /* \"#utility.yul\":357:474   */\n      pop\n        /* \"#utility.yul\":152:481   */\n      swap3\n      swap2\n      pop\n      pop\n      jump\t// out\n        /* \"#utility.yul\":487:605   */\n    tag_40:\n        /* \"#utility.yul\":574:598   */\n      tag_42\n        /* \"#utility.yul\":592:597   */\n      dup2\n        /* \"#utility.yul\":574:598   */\n      tag_43\n      jump\t// in\n    tag_42:\n        /* \"#utility.yul\":569:572   */\n      dup3\n        /* \"#utility.yul\":562:599   */\n      mstore\n        /* \"#utility.yul\":487:605   */\n      pop\n      pop\n      jump\t// out\n        /* \"#utility.yul\":611:833   */\n    tag_16:\n        /* \"#utility.yul\":704:708   */\n      0x00\n        /* \"#utility.yul\":742:744   */\n      0x20\n        /* \"#utility.yul\":731:740   */\n      dup3\n        /* \"#utility.yul\":727:745   */\n      add\n        /* \"#utility.yul\":719:745   */\n      swap1\n      pop\n        /* \"#utility.yul\":755:826   */\n      tag_45\n        /* \"#utility.yul\":823:824   */\n      0x00\n        /* \"#utility.yul\":812:821   */\n      dup4\n        /* \"#utility.yul\":808:825   */\n      add\n        /* \"#utility.yul\":799:805   */\n      dup5\n        /* \"#utility.yul\":755:826   */\n      tag_40\n      jump\t// in\n    tag_45:\n        /* \"#utility.yul\":611:833   */\n      swap3\n      swap2\n      pop\n      pop\n      jump\t// out\n        /* \"#utility.yul\":920:1225   */\n    tag_29:\n        /* \"#utility.yul\":960:963   */\n      0x00\n        /* \"#utility.yul\":979:999   */\n      tag_49\n        /* \"#utility.yul\":997:998   */\n      dup3\n        /* \"#utility.yul\":979:999   */\n      tag_43\n      jump\t// in\n    tag_49:\n        /* \"#utility.yul\":974:999   */\n      swap2\n      pop\n        /* \"#utility.yul\":1013:1033   */\n      tag_50\n        /* \"#utility.yul\":1031:1032   */\n      dup4\n        /* \"#utility.yul\":1013:1033   */\n      tag_43\n      jump\t// in\n    tag_50:\n        /* \"#utility.yul\":1008:1033   */\n      swap3\n      pop\n        /* \"#utility.yul\":1167:1168   */\n      dup3\n        /* \"#utility.yul\":1099:1165   */\n      0xffffffffffffffffffffffffffffffffffffffffffffffffffffffffffffffff\n        /* \"#utility.yul\":1095:1169   */\n      sub\n        /* \"#utility.yul\":1092:1093   */\n      dup3\n        /* \"#utility.yul\":1089:1170   */\n      gt\n        /* \"#utility.yul\":1086:1193   */\n      iszero\n      tag_51\n      jumpi\n        /* \"#utility.yul\":1173:1191   */\n      tag_52\n      tag_53\n      jump\t// in\n    tag_52:\n        /* \"#utility.yul\":1086:1193   */\n    tag_51:\n        /* \"#utility.yul\":1217:1218   */\n      dup3\n        /* \"#utility.yul\":1214:1215   */\n      dup3\n        /* \"#utility.yul\":1210:1219   */\n      add\n        /* \"#utility.yul\":1203:1219   */\n      swap1\n      pop\n        /* \"#utility.yul\":920:1225   */\n      swap3\n      swap2\n      pop\n      pop\n      jump\t// out\n        /* \"#utility.yul\":1231:1422   */\n    tag_26:\n        /* \"#utility.yul\":1271:1275   */\n      0x00\n        /* \"#utility.yul\":1291:1311   */\n      tag_55\n        /* \"#utility.yul\":1309:1310   */\n      dup3\n        /* \"#utility.yul\":1291:1311   */\n      tag_43\n      jump\t// in\n    tag_55:\n        /* \"#utility.yul\":1286:1311   */\n      swap2\n      pop\n        /* \"#utility.yul\":1325:1345   */\n      tag_56\n        /* \"#utility.yul\":1343:1344   */\n      dup4\n        /* \"#utility.yul\":1325:1345   */\n      tag_43\n      jump\t// in\n    tag_56:\n        /* \"#utility.yul\":1320:1345   */\n      swap3\n      pop\n        /* \"#utility.yul\":1364:1365   */\n      dup3\n        /* \"#utility.yul\":1361:1362   */\n      dup3\n        /* \"#utility.yul\":1358:1366   */\n      lt\n        /* \"#utility.yul\":1355:1389   */\n      iszero\n      tag_57\n      jumpi\n        /* \"#utility.yul\":1369:1387   */\n      tag_58\n      tag_53\n      jump\t// in\n    tag_58:\n        /* \"#utility.yul\":1355:1389   */\n    tag_57:\n        /* \"#utility.yul\":1414:1415   */\n      dup3\n        /* \"#utility.yul\":1411:1412   */\n      dup3\n        /* \"#utility.yul\":1407:1416   */\n      sub\n        /* \"#utility.yul\":1399:1416   */\n      swap1\n      pop\n        /* \"#utility.yul\":1231:1422   */\n      swap3\n      swap2\n      pop\n      pop\n      jump\t// out\n        /* \"#utility.yul\":1428:1505   */\n    tag_43:\n        /* \"#utility.yul\":1465:1472   */\n      0x00\n        /* \"#utility.yul\":1494:1499   */\n      dup2\n        /* \"#utility.yul\":1483:1499   */\n      swap1\n      pop\n        /* \"#utility.yul\":1428:1505   */\n      swap2\n      swap1\n      pop\n      jump\t// out\n        /* \"#utility.yul\":1511:1691   */\n    tag_53:\n        /* \"#utility.yul\":1559:1636   */\n      0x4e487b7100000000000000000000000000000000000000000000000000000000\n        /* \"#utility.yul\":1556:1557   */\n      0x00\n        /* \"#utility.yul\":1549:1637   */\n      mstore\n        /* \"#utility.yul\":1656:1660   */\n      0x11\n        /* \"#utility.yul\":1653:1654   */\n      0x04\n        /* \"#utility.yul\":1646:1661   */\n      mstore\n        /* \"#utility.yul\":1680:1684   */\n      0x24\n        /* \"#utility.yul\":1677:1678   */\n      0x00\n        /* \"#utility.yul\":1670:1685   */\n      revert\n        /* \"#utility.yul\":1820:1937   */\n    tag_38:\n        /* \"#utility.yul\":1929:1930   */\n      0x00\n        /* \"#utility.yul\":1926:1927   */\n      dup1\n        /* \"#utility.yul\":1919:1931   */\n      revert\n        /* \"#utility.yul\":1943:2065   */\n    tag_34:\n        /* \"#utility.yul\":2016:2040   */\n      tag_65\n        /* \"#utility.yul\":2034:2039   */\n      dup2\n        /* \"#utility.yul\":2016:2040   */\n      tag_43\n      jump\t// in\n    tag_65:\n        /* \"#utility.yul\":2009:2014   */\n      dup2\n        /* \"#utility.yul\":2006:2041   */\n      eq\n        /* \"#utility.yul\":1996:2059   */\n      tag_66\n      jumpi\n        /* \"#utility.yul\":2055:2056   */\n      0x00\n        /* \"#utility.yul\":2052:2053   */\n      dup1\n        /* \"#utility.yul\":2045:2057   */\n      revert\n        /* \"#utility.yul\":1996:2059   */\n    tag_66:\n        /* \"#utility.yul\":1943:2065   */\n      pop\n      jump\t// out\n\n    auxdata: 0xa2646970667358221220a64834d086d17c9ef84aab51bdffbab76f53ebca797a65f0be67108db2adc57764736f6c63430008070033\n}\n",
				"bytecode": {
					"linkReferences": {},
					"object": "608060405234801561001057600080fd5b5061028e806100206000396000f3fe608060405234801561001057600080fd5b50600436106100415760003560e01c80632e1a7d4d14610046578063b6b55f2514610062578063c71daccb1461007e575b600080fd5b610060600480360381019061005b9190610122565b61009c565b005b61007c60048036038101906100779190610122565b6100ba565b005b6100866100d8565b604051610093919061015e565b60405180910390f35b6100b1816000546100e190919063ffffffff16565b60008190555050565b6100cf816000546100f790919063ffffffff16565b60008190555050565b60008054905090565b600081836100ef91906101cf565b905092915050565b600081836101059190610179565b905092915050565b60008135905061011c81610241565b92915050565b6000602082840312156101385761013761023c565b5b60006101468482850161010d565b91505092915050565b61015881610203565b82525050565b6000602082019050610173600083018461014f565b92915050565b600061018482610203565b915061018f83610203565b9250827fffffffffffffffffffffffffffffffffffffffffffffffffffffffffffffffff038211156101c4576101c361020d565b5b828201905092915050565b60006101da82610203565b91506101e583610203565b9250828210156101f8576101f761020d565b5b828203905092915050565b6000819050919050565b7f4e487b7100000000000000000000000000000000000000000000000000000000600052601160045260246000fd5b600080fd5b61024a81610203565b811461025557600080fd5b5056fea2646970667358221220a64834d086d17c9ef84aab51bdffbab76f53ebca797a65f0be67108db2adc57764736f6c63430008070033",
					"opcodes": "PUSH1 0x80 PUSH1 0x40 MSTORE CALLVALUE DUP1 ISZERO PUSH2 0x10 JUMPI PUSH1 0x0 DUP1 REVERT JUMPDEST POP PUSH2 0x28E DUP1 PUSH2 0x20 PUSH1 0x0 CODECOPY PUSH1 0x0 RETURN INVALID PUSH1 0x80 PUSH1 0x40 MSTORE CALLVALUE DUP1 ISZERO PUSH2 0x10 JUMPI PUSH1 0x0 DUP1 REVERT JUMPDEST POP PUSH1 0x4 CALLDATASIZE LT PUSH2 0x41 JUMPI PUSH1 0x0 CALLDATALOAD PUSH1 0xE0 SHR DUP1 PUSH4 0x2E1A7D4D EQ PUSH2 0x46 JUMPI DUP1 PUSH4 0xB6B55F25 EQ PUSH2 0x62 JUMPI DUP1 PUSH4 0xC71DACCB EQ PUSH2 0x7E JUMPI JUMPDEST PUSH1 0x0 DUP1 REVERT JUMPDEST PUSH2 0x60 PUSH1 0x4 DUP1 CALLDATASIZE SUB DUP2 ADD SWAP1 PUSH2 0x5B SWAP2 SWAP1 PUSH2 0x122 JUMP JUMPDEST PUSH2 0x9C JUMP JUMPDEST STOP JUMPDEST PUSH2 0x7C PUSH1 0x4 DUP1 CALLDATASIZE SUB DUP2 ADD SWAP1 PUSH2 0x77 SWAP2 SWAP1 PUSH2 0x122 JUMP JUMPDEST PUSH2 0xBA JUMP JUMPDEST STOP JUMPDEST PUSH2 0x86 PUSH2 0xD8 JUMP JUMPDEST PUSH1 0x40 MLOAD PUSH2 0x93 SWAP2 SWAP1 PUSH2 0x15E JUMP JUMPDEST PUSH1 0x40 MLOAD DUP1 SWAP2 SUB SWAP1 RETURN JUMPDEST PUSH2 0xB1 DUP2 PUSH1 0x0 SLOAD PUSH2 0xE1 SWAP1 SWAP2 SWAP1 PUSH4 0xFFFFFFFF AND JUMP JUMPDEST PUSH1 0x0 DUP2 SWAP1 SSTORE POP POP JUMP JUMPDEST PUSH2 0xCF DUP2 PUSH1 0x0 SLOAD PUSH2 0xF7 SWAP1 SWAP2 SWAP1 PUSH4 0xFFFFFFFF AND JUMP JUMPDEST PUSH1 0x0 DUP2 SWAP1 SSTORE POP POP JUMP JUMPDEST PUSH1 0x0 DUP1 SLOAD SWAP1 POP SWAP1 JUMP JUMPDEST PUSH1 0x0 DUP2 DUP4 PUSH2 0xEF SWAP2 SWAP1 PUSH2 0x1CF JUMP JUMPDEST SWAP1 POP SWAP3 SWAP2 POP POP JUMP JUMPDEST PUSH1 0x0 DUP2 DUP4 PUSH2 0x105 SWAP2 SWAP1 PUSH2 0x179 JUMP JUMPDEST SWAP1 POP SWAP3 SWAP2 POP POP JUMP JUMPDEST PUSH1 0x0 DUP2 CALLDATALOAD SWAP1 POP PUSH2 0x11C DUP2 PUSH2 0x241 JUMP JUMPDEST SWAP3 SWAP2 POP POP JUMP JUMPDEST PUSH1 0x0 PUSH1 0x20 DUP3 DUP5 SUB SLT ISZERO PUSH2 0x138 JUMPI PUSH2 0x137 PUSH2 0x23C JUMP JUMPDEST JUMPDEST PUSH1 0x0 PUSH2 0x146 DUP5 DUP3 DUP6 ADD PUSH2 0x10D JUMP JUMPDEST SWAP2 POP POP SWAP3 SWAP2 POP POP JUMP JUMPDEST PUSH2 0x158 DUP2 PUSH2 0x203 JUMP JUMPDEST DUP3 MSTORE POP POP JUMP JUMPDEST PUSH1 0x0 PUSH1 0x20 DUP3 ADD SWAP1 POP PUSH2 0x173 PUSH1 0x0 DUP4 ADD DUP5 PUSH2 0x14F JUMP JUMPDEST SWAP3 SWAP2 POP POP JUMP JUMPDEST PUSH1 0x0 PUSH2 0x184 DUP3 PUSH2 0x203 JUMP JUMPDEST SWAP2 POP PUSH2 0x18F DUP4 PUSH2 0x203 JUMP JUMPDEST SWAP3 POP DUP3 PUSH32 0xFFFFFFFFFFFFFFFFFFFFFFFFFFFFFFFFFFFFFFFFFFFFFFFFFFFFFFFFFFFFFFFF SUB DUP3 GT ISZERO PUSH2 0x1C4 JUMPI PUSH2 0x1C3 PUSH2 0x20D JUMP JUMPDEST JUMPDEST DUP3 DUP3 ADD SWAP1 POP SWAP3 SWAP2 POP POP JUMP JUMPDEST PUSH1 0x0 PUSH2 0x1DA DUP3 PUSH2 0x203 JUMP JUMPDEST SWAP2 POP PUSH2 0x1E5 DUP4 PUSH2 0x203 JUMP JUMPDEST SWAP3 POP DUP3 DUP3 LT ISZERO PUSH2 0x1F8 JUMPI PUSH2 0x1F7 PUSH2 0x20D JUMP JUMPDEST JUMPDEST DUP3 DUP3 SUB SWAP1 POP SWAP3 SWAP2 POP POP JUMP JUMPDEST PUSH1 0x0 DUP2 SWAP1 POP SWAP2 SWAP1 POP JUMP JUMPDEST PUSH32 0x4E487B7100000000000000000000000000000000000000000000000000000000 PUSH1 0x0 MSTORE PUSH1 0x11 PUSH1 0x4 MSTORE PUSH1 0x24 PUSH1 0x0 REVERT JUMPDEST PUSH1 0x0 DUP1 REVERT JUMPDEST PUSH2 0x24A DUP2 PUSH2 0x203 JUMP JUMPDEST DUP2 EQ PUSH2 0x255 JUMPI PUSH1 0x0 DUP1 REVERT JUMPDEST POP JUMP INVALID LOG2 PUSH5 0x6970667358 0x22 SLT KECCAK256 0xA6 BASEFEE CALLVALUE 0xD0 DUP7 0xD1 PUSH29 0x9EF84AAB51BDFFBAB76F53EBCA797A65F0BE67108DB2ADC57764736F6C PUSH4 0x43000807 STOP CALLER "
				},
				"gasEstimates": {
					"creation": {
						"codeDepositCost": "130800",
						"executionCost": "177",
						"totalCost": "130977"
					},
					"external": {
						"checkBalance()": "2459",
						"deposit(uint256)": "infinite",
						"withdraw(uint256)": "infinite"
					}
				},
				"methodIdentifiers": {
					"checkBalance()": "c71daccb",
					"deposit(uint256)": "b6b55f25",
					"withdraw(uint256)": "2e1a7d4d"
				}
			},
			"storageLayout": {
				"storage": [
					{
						"astId": 7,
						"contract": "Bank.sol:Bank",
						"label": "_balance",
						"offset": 0,
						"slot": "0",
						"type": "t_uint256"
					}
				],
				"types": {
					"t_uint256": {
						"encoding": "inplace",
						"label": "uint256",
						"numberOfBytes": "32"
					}
				}
			},
			"userdoc": {
				"kind": "user",
				"methods": {},
				"version": 1
			}
		}
	}
}