{
	"Bank.sol": {
		"Bank": {
			"abi": [
				{
					"inputs": [],
					"name": "checkBalance",
					"outputs": [
						{
							"internalType": "uint256",
							"name": "balance",
							"type": "uint256"
						}
					],
					"stateMutability": "view",
					"type": "function"
				},
				{
					"inputs": [],
					"name": "deposit",
					"outputs": [],
					"stateMutability": "payable",
					"type": "function"
				},
				{
					"inputs": [
						{
							"internalType": "uint256",
							"name": "amount",
							"type": "uint256"
						}
					],
					"name": "withdraw",
					"outputs": [],
					"stateMutability": "payable",
					"type": "function"
				}
			],
			"devdoc": {
				"kind": "dev",
				"methods": {},
				"version": 1
			},
			"evm": {
				"assembly": "    /* \"Bank.sol\":59:534  contract Bank {... */\n  mstore(0x40, 0x80)\n  callvalue\n  dup1\n  iszero\n  tag_1\n  jumpi\n  0x00\n  dup1\n  revert\ntag_1:\n  pop\n  dataSize(sub_0)\n  dup1\n  dataOffset(sub_0)\n  0x00\n  codecopy\n  0x00\n  return\nstop\n\nsub_0: assembly {\n        /* \"Bank.sol\":59:534  contract Bank {... */\n      mstore(0x40, 0x80)\n      jumpi(tag_1, lt(calldatasize, 0x04))\n      shr(0xe0, calldataload(0x00))\n      dup1\n      0x2e1a7d4d\n      eq\n      tag_2\n      jumpi\n      dup1\n      0xc71daccb\n      eq\n      tag_3\n      jumpi\n      dup1\n      0xd0e30db0\n      eq\n      tag_4\n      jumpi\n    tag_1:\n      0x00\n      dup1\n      revert\n        /* \"Bank.sol\":213:423  function withdraw(uint amount) public payable{... */\n    tag_2:\n      tag_5\n      0x04\n      dup1\n      calldatasize\n      sub\n      dup2\n      add\n      swap1\n      tag_6\n      swap2\n      swap1\n      tag_7\n      jump\t// in\n    tag_6:\n      tag_8\n      jump\t// in\n    tag_5:\n      stop\n        /* \"Bank.sol\":429:532  function checkBalance() public view returns(uint balance) {... */\n    tag_3:\n      callvalue\n      dup1\n      iszero\n      tag_9\n      jumpi\n      0x00\n      dup1\n      revert\n    tag_9:\n      pop\n      tag_10\n      tag_11\n      jump\t// in\n    tag_10:\n      mload(0x40)\n      tag_12\n      swap2\n      swap1\n      tag_13\n      jump\t// in\n    tag_12:\n      mload(0x40)\n      dup1\n      swap2\n      sub\n      swap1\n      return\n        /* \"Bank.sol\":122:207  function deposit() public payable {... */\n    tag_4:\n      tag_14\n      tag_15\n      jump\t// in\n    tag_14:\n      stop\n        /* \"Bank.sol\":213:423  function withdraw(uint amount) public payable{... */\n    tag_8:\n        /* \"Bank.sol\":286:295  _balances */\n      0x00\n        /* \"Bank.sol\":286:307  _balances[msg.sender] */\n      dup1\n        /* \"Bank.sol\":296:306  msg.sender */\n      caller\n        /* \"Bank.sol\":286:307  _balances[msg.sender] */\n      0xffffffffffffffffffffffffffffffffffffffff\n      and\n      0xffffffffffffffffffffffffffffffffffffffff\n      and\n      dup2\n      mstore\n      0x20\n      add\n      swap1\n      dup2\n      mstore\n      0x20\n      add\n      0x00\n      keccak256\n      sload\n        /* \"Bank.sol\":276:282  amount */\n      dup2\n        /* \"Bank.sol\":276:307  amount <= _balances[msg.sender] */\n      gt\n      iszero\n        /* \"Bank.sol\":268:328  require(amount <= _balances[msg.sender], \"not enough money\") */\n      tag_17\n      jumpi\n      mload(0x40)\n      0x08c379a000000000000000000000000000000000000000000000000000000000\n      dup2\n      mstore\n      0x04\n      add\n      tag_18\n      swap1\n      tag_19\n      jump\t// in\n    tag_18:\n      mload(0x40)\n      dup1\n      swap2\n      sub\n      swap1\n      revert\n    tag_17:\n        /* \"Bank.sol\":347:357  msg.sender */\n      caller\n        /* \"Bank.sol\":339:367  payable(msg.sender).transfer */\n      0xffffffffffffffffffffffffffffffffffffffff\n      and\n        /* \"Bank.sol\":339:375  payable(msg.sender).transfer(amount) */\n      0x08fc\n        /* \"Bank.sol\":368:374  amount */\n      dup3\n        /* \"Bank.sol\":339:375  payable(msg.sender).transfer(amount) */\n      swap1\n      dup2\n      iszero\n      mul\n      swap1\n      mload(0x40)\n      0x00\n      mload(0x40)\n      dup1\n      dup4\n      sub\n      dup2\n      dup6\n      dup9\n      dup9\n      call\n      swap4\n      pop\n      pop\n      pop\n      pop\n      iszero\n      dup1\n      iszero\n      tag_21\n      jumpi\n      returndatasize\n      0x00\n      dup1\n      returndatacopy\n      revert(0x00, returndatasize)\n    tag_21:\n      pop\n        /* \"Bank.sol\":410:416  amount */\n      dup1\n        /* \"Bank.sol\":385:394  _balances */\n      0x00\n        /* \"Bank.sol\":385:406  _balances[msg.sender] */\n      dup1\n        /* \"Bank.sol\":395:405  msg.sender */\n      caller\n        /* \"Bank.sol\":385:406  _balances[msg.sender] */\n      0xffffffffffffffffffffffffffffffffffffffff\n      and\n      0xffffffffffffffffffffffffffffffffffffffff\n      and\n      dup2\n      mstore\n      0x20\n      add\n      swap1\n      dup2\n      mstore\n      0x20\n      add\n      0x00\n      keccak256\n      0x00\n        /* \"Bank.sol\":385:416  _balances[msg.sender] -= amount */\n      dup3\n      dup3\n      sload\n      tag_22\n      swap2\n      swap1\n      tag_23\n      jump\t// in\n    tag_22:\n      swap3\n      pop\n      pop\n      dup2\n      swap1\n      sstore\n      pop\n        /* \"Bank.sol\":213:423  function withdraw(uint amount) public payable{... */\n      pop\n      jump\t// out\n        /* \"Bank.sol\":429:532  function checkBalance() public view returns(uint balance) {... */\n    tag_11:\n        /* \"Bank.sol\":473:485  uint balance */\n      0x00\n        /* \"Bank.sol\":504:513  _balances */\n      dup1\n        /* \"Bank.sol\":504:525  _balances[msg.sender] */\n      0x00\n        /* \"Bank.sol\":514:524  msg.sender */\n      caller\n        /* \"Bank.sol\":504:525  _balances[msg.sender] */\n      0xffffffffffffffffffffffffffffffffffffffff\n      and\n      0xffffffffffffffffffffffffffffffffffffffff\n      and\n      dup2\n      mstore\n      0x20\n      add\n      swap1\n      dup2\n      mstore\n      0x20\n      add\n      0x00\n      keccak256\n      sload\n        /* \"Bank.sol\":497:525  return _balances[msg.sender] */\n      swap1\n      pop\n        /* \"Bank.sol\":429:532  function checkBalance() public view returns(uint balance) {... */\n      swap1\n      jump\t// out\n        /* \"Bank.sol\":122:207  function deposit() public payable {... */\n    tag_15:\n        /* \"Bank.sol\":191:200  msg.value */\n      callvalue\n        /* \"Bank.sol\":166:175  _balances */\n      0x00\n        /* \"Bank.sol\":166:187  _balances[msg.sender] */\n      dup1\n        /* \"Bank.sol\":176:186  msg.sender */\n      caller\n        /* \"Bank.sol\":166:187  _balances[msg.sender] */\n      0xffffffffffffffffffffffffffffffffffffffff\n      and\n      0xffffffffffffffffffffffffffffffffffffffff\n      and\n      dup2\n      mstore\n      0x20\n      add\n      swap1\n      dup2\n      mstore\n      0x20\n      add\n      0x00\n      keccak256\n      0x00\n        /* \"Bank.sol\":166:200  _balances[msg.sender] += msg.value */\n      dup3\n      dup3\n      sload\n      tag_26\n      swap2\n      swap1\n      tag_27\n      jump\t// in\n    tag_26:\n      swap3\n      pop\n      pop\n      dup2\n      swap1\n      sstore\n      pop\n        /* \"Bank.sol\":122:207  function deposit() public payable {... */\n      jump\t// out\n        /* \"#utility.yul\":7:146   */\n    tag_29:\n        /* \"#utility.yul\":53:58   */\n      0x00\n        /* \"#utility.yul\":91:97   */\n      dup2\n        /* \"#utility.yul\":78:98   */\n      calldataload\n        /* \"#utility.yul\":69:98   */\n      swap1\n      pop\n        /* \"#utility.yul\":107:140   */\n      tag_31\n        /* \"#utility.yul\":134:139   */\n      dup2\n        /* \"#utility.yul\":107:140   */\n      tag_32\n      jump\t// in\n    tag_31:\n        /* \"#utility.yul\":7:146   */\n      swap3\n      swap2\n      pop\n      pop\n      jump\t// out\n        /* \"#utility.yul\":152:481   */\n    tag_7:\n        /* \"#utility.yul\":211:217   */\n      0x00\n        /* \"#utility.yul\":260:262   */\n      0x20\n        /* \"#utility.yul\":248:257   */\n      dup3\n        /* \"#utility.yul\":239:246   */\n      dup5\n        /* \"#utility.yul\":235:258   */\n      sub\n        /* \"#utility.yul\":231:263   */\n      slt\n        /* \"#utility.yul\":228:347   */\n      iszero\n      tag_34\n      jumpi\n        /* \"#utility.yul\":266:345   */\n      tag_35\n      tag_36\n      jump\t// in\n    tag_35:\n        /* \"#utility.yul\":228:347   */\n    tag_34:\n        /* \"#utility.yul\":386:387   */\n      0x00\n        /* \"#utility.yul\":411:464   */\n      tag_37\n        /* \"#utility.yul\":456:463   */\n      dup5\n        /* \"#utility.yul\":447:453   */\n      dup3\n        /* \"#utility.yul\":436:445   */\n      dup6\n        /* \"#utility.yul\":432:454   */\n      add\n        /* \"#utility.yul\":411:464   */\n      tag_29\n      jump\t// in\n    tag_37:\n        /* \"#utility.yul\":401:464   */\n      swap2\n      pop\n        /* \"#utility.yul\":357:474   */\n      pop\n        /* \"#utility.yul\":152:481   */\n      swap3\n      swap2\n      pop\n      pop\n      jump\t// out\n        /* \"#utility.yul\":487:853   */\n    tag_38:\n        /* \"#utility.yul\":629:632   */\n      0x00\n        /* \"#utility.yul\":650:717   */\n      tag_40\n        /* \"#utility.yul\":714:716   */\n      0x10\n        /* \"#utility.yul\":709:712   */\n      dup4\n        /* \"#utility.yul\":650:717   */\n      tag_41\n      jump\t// in\n    tag_40:\n        /* \"#utility.yul\":643:717   */\n      swap2\n      pop\n        /* \"#utility.yul\":726:819   */\n      tag_42\n        /* \"#utility.yul\":815:818   */\n      dup3\n        /* \"#utility.yul\":726:819   */\n      tag_43\n      jump\t// in\n    tag_42:\n        /* \"#utility.yul\":844:846   */\n      0x20\n        /* \"#utility.yul\":839:842   */\n      dup3\n        /* \"#utility.yul\":835:847   */\n      add\n        /* \"#utility.yul\":828:847   */\n      swap1\n      pop\n        /* \"#utility.yul\":487:853   */\n      swap2\n      swap1\n      pop\n      jump\t// out\n        /* \"#utility.yul\":859:977   */\n    tag_44:\n        /* \"#utility.yul\":946:970   */\n      tag_46\n        /* \"#utility.yul\":964:969   */\n      dup2\n        /* \"#utility.yul\":946:970   */\n      tag_47\n      jump\t// in\n    tag_46:\n        /* \"#utility.yul\":941:944   */\n      dup3\n        /* \"#utility.yul\":934:971   */\n      mstore\n        /* \"#utility.yul\":859:977   */\n      pop\n      pop\n      jump\t// out\n        /* \"#utility.yul\":983:1402   */\n    tag_19:\n        /* \"#utility.yul\":1149:1153   */\n      0x00\n        /* \"#utility.yul\":1187:1189   */\n      0x20\n        /* \"#utility.yul\":1176:1185   */\n      dup3\n        /* \"#utility.yul\":1172:1190   */\n      add\n        /* \"#utility.yul\":1164:1190   */\n      swap1\n      pop\n        /* \"#utility.yul\":1236:1245   */\n      dup2\n        /* \"#utility.yul\":1230:1234   */\n      dup2\n        /* \"#utility.yul\":1226:1246   */\n      sub\n        /* \"#utility.yul\":1222:1223   */\n      0x00\n        /* \"#utility.yul\":1211:1220   */\n      dup4\n        /* \"#utility.yul\":1207:1224   */\n      add\n        /* \"#utility.yul\":1200:1247   */\n      mstore\n        /* \"#utility.yul\":1264:1395   */\n      tag_49\n        /* \"#utility.yul\":1390:1394   */\n      dup2\n        /* \"#utility.yul\":1264:1395   */\n      tag_38\n      jump\t// in\n    tag_49:\n        /* \"#utility.yul\":1256:1395   */\n      swap1\n      pop\n        /* \"#utility.yul\":983:1402   */\n      swap2\n      swap1\n      pop\n      jump\t// out\n        /* \"#utility.yul\":1408:1630   */\n    tag_13:\n        /* \"#utility.yul\":1501:1505   */\n      0x00\n        /* \"#utility.yul\":1539:1541   */\n      0x20\n        /* \"#utility.yul\":1528:1537   */\n      dup3\n        /* \"#utility.yul\":1524:1542   */\n      add\n        /* \"#utility.yul\":1516:1542   */\n      swap1\n      pop\n        /* \"#utility.yul\":1552:1623   */\n      tag_51\n        /* \"#utility.yul\":1620:1621   */\n      0x00\n        /* \"#utility.yul\":1609:1618   */\n      dup4\n        /* \"#utility.yul\":1605:1622   */\n      add\n        /* \"#utility.yul\":1596:1602   */\n      dup5\n        /* \"#utility.yul\":1552:1623   */\n      tag_44\n      jump\t// in\n    tag_51:\n        /* \"#utility.yul\":1408:1630   */\n      swap3\n      swap2\n      pop\n      pop\n      jump\t// out\n        /* \"#utility.yul\":1717:1886   */\n    tag_41:\n        /* \"#utility.yul\":1801:1812   */\n      0x00\n        /* \"#utility.yul\":1835:1841   */\n      dup3\n        /* \"#utility.yul\":1830:1833   */\n      dup3\n        /* \"#utility.yul\":1823:1842   */\n      mstore\n        /* \"#utility.yul\":1875:1879   */\n      0x20\n        /* \"#utility.yul\":1870:1873   */\n      dup3\n        /* \"#utility.yul\":1866:1880   */\n      add\n        /* \"#utility.yul\":1851:1880   */\n      swap1\n      pop\n        /* \"#utility.yul\":1717:1886   */\n      swap3\n      swap2\n      pop\n      pop\n      jump\t// out\n        /* \"#utility.yul\":1892:2197   */\n    tag_27:\n        /* \"#utility.yul\":1932:1935   */\n      0x00\n        /* \"#utility.yul\":1951:1971   */\n      tag_56\n        /* \"#utility.yul\":1969:1970   */\n      dup3\n        /* \"#utility.yul\":1951:1971   */\n      tag_47\n      jump\t// in\n    tag_56:\n        /* \"#utility.yul\":1946:1971   */\n      swap2\n      pop\n        /* \"#utility.yul\":1985:2005   */\n      tag_57\n        /* \"#utility.yul\":2003:2004   */\n      dup4\n        /* \"#utility.yul\":1985:2005   */\n      tag_47\n      jump\t// in\n    tag_57:\n        /* \"#utility.yul\":1980:2005   */\n      swap3\n      pop\n        /* \"#utility.yul\":2139:2140   */\n      dup3\n        /* \"#utility.yul\":2071:2137   */\n      0xffffffffffffffffffffffffffffffffffffffffffffffffffffffffffffffff\n        /* \"#utility.yul\":2067:2141   */\n      sub\n        /* \"#utility.yul\":2064:2065   */\n      dup3\n        /* \"#utility.yul\":2061:2142   */\n      gt\n        /* \"#utility.yul\":2058:2165   */\n      iszero\n      tag_58\n      jumpi\n        /* \"#utility.yul\":2145:2163   */\n      tag_59\n      tag_60\n      jump\t// in\n    tag_59:\n        /* \"#utility.yul\":2058:2165   */\n    tag_58:\n        /* \"#utility.yul\":2189:2190   */\n      dup3\n        /* \"#utility.yul\":2186:2187   */\n      dup3\n        /* \"#utility.yul\":2182:2191   */\n      add\n        /* \"#utility.yul\":2175:2191   */\n      swap1\n      pop\n        /* \"#utility.yul\":1892:2197   */\n      swap3\n      swap2\n      pop\n      pop\n      jump\t// out\n        /* \"#utility.yul\":2203:2394   */\n    tag_23:\n        /* \"#utility.yul\":2243:2247   */\n      0x00\n        /* \"#utility.yul\":2263:2283   */\n      tag_62\n        /* \"#utility.yul\":2281:2282   */\n      dup3\n        /* \"#utility.yul\":2263:2283   */\n      tag_47\n      jump\t// in\n    tag_62:\n        /* \"#utility.yul\":2258:2283   */\n      swap2\n      pop\n        /* \"#utility.yul\":2297:2317   */\n      tag_63\n        /* \"#utility.yul\":2315:2316   */\n      dup4\n        /* \"#utility.yul\":2297:2317   */\n      tag_47\n      jump\t// in\n    tag_63:\n        /* \"#utility.yul\":2292:2317   */\n      swap3\n      pop\n        /* \"#utility.yul\":2336:2337   */\n      dup3\n        /* \"#utility.yul\":2333:2334   */\n      dup3\n        /* \"#utility.yul\":2330:2338   */\n      lt\n        /* \"#utility.yul\":2327:2361   */\n      iszero\n      tag_64\n      jumpi\n        /* \"#utility.yul\":2341:2359   */\n      tag_65\n      tag_60\n      jump\t// in\n    tag_65:\n        /* \"#utility.yul\":2327:2361   */\n    tag_64:\n        /* \"#utility.yul\":2386:2387   */\n      dup3\n        /* \"#utility.yul\":2383:2384   */\n      dup3\n        /* \"#utility.yul\":2379:2388   */\n      sub\n        /* \"#utility.yul\":2371:2388   */\n      swap1\n      pop\n        /* \"#utility.yul\":2203:2394   */\n      swap3\n      swap2\n      pop\n      pop\n      jump\t// out\n        /* \"#utility.yul\":2400:2477   */\n    tag_47:\n        /* \"#utility.yul\":2437:2444   */\n      0x00\n        /* \"#utility.yul\":2466:2471   */\n      dup2\n        /* \"#utility.yul\":2455:2471   */\n      swap1\n      pop\n        /* \"#utility.yul\":2400:2477   */\n      swap2\n      swap1\n      pop\n      jump\t// out\n        /* \"#utility.yul\":2483:2663   */\n    tag_60:\n        /* \"#utility.yul\":2531:2608   */\n      0x4e487b7100000000000000000000000000000000000000000000000000000000\n        /* \"#utility.yul\":2528:2529   */\n      0x00\n        /* \"#utility.yul\":2521:2609   */\n      mstore\n        /* \"#utility.yul\":2628:2632   */\n      0x11\n        /* \"#utility.yul\":2625:2626   */\n      0x04\n        /* \"#utility.yul\":2618:2633   */\n      mstore\n        /* \"#utility.yul\":2652:2656   */\n      0x24\n        /* \"#utility.yul\":2649:2650   */\n      0x00\n        /* \"#utility.yul\":2642:2657   */\n      revert\n        /* \"#utility.yul\":2792:2909   */\n    tag_36:\n        /* \"#utility.yul\":2901:2902   */\n      0x00\n        /* \"#utility.yul\":2898:2899   */\n      dup1\n        /* \"#utility.yul\":2891:2903   */\n      revert\n        /* \"#utility.yul\":2915:3081   */\n    tag_43:\n        /* \"#utility.yul\":3055:3073   */\n      0x6e6f7420656e6f756768206d6f6e657900000000000000000000000000000000\n        /* \"#utility.yul\":3051:3052   */\n      0x00\n        /* \"#utility.yul\":3043:3049   */\n      dup3\n        /* \"#utility.yul\":3039:3053   */\n      add\n        /* \"#utility.yul\":3032:3074   */\n      mstore\n        /* \"#utility.yul\":2915:3081   */\n      pop\n      jump\t// out\n        /* \"#utility.yul\":3087:3209   */\n    tag_32:\n        /* \"#utility.yul\":3160:3184   */\n      tag_73\n        /* \"#utility.yul\":3178:3183   */\n      dup2\n        /* \"#utility.yul\":3160:3184   */\n      tag_47\n      jump\t// in\n    tag_73:\n        /* \"#utility.yul\":3153:3158   */\n      dup2\n        /* \"#utility.yul\":3150:3185   */\n      eq\n        /* \"#utility.yul\":3140:3203   */\n      tag_74\n      jumpi\n        /* \"#utility.yul\":3199:3200   */\n      0x00\n        /* \"#utility.yul\":3196:3197   */\n      dup1\n        /* \"#utility.yul\":3189:3201   */\n      revert\n        /* \"#utility.yul\":3140:3203   */\n    tag_74:\n        /* \"#utility.yul\":3087:3209   */\n      pop\n      jump\t// out\n\n    auxdata: 0xa2646970667358221220892f7e0b0ad3f281a66891b42f164643a983179cc6a7e351e38613a5cc52bc9364736f6c63430008070033\n}\n",
				"bytecode": {
					"linkReferences": {},
					"object": "608060405234801561001057600080fd5b50610445806100206000396000f3fe6080604052600436106100345760003560e01c80632e1a7d4d14610039578063c71daccb14610055578063d0e30db014610080575b600080fd5b610053600480360381019061004e919061025c565b61008a565b005b34801561006157600080fd5b5061006a6101aa565b60405161007791906102db565b60405180910390f35b6100886101f0565b005b6000803373ffffffffffffffffffffffffffffffffffffffff1673ffffffffffffffffffffffffffffffffffffffff1681526020019081526020016000205481111561010b576040517f08c379a0000000000000000000000000000000000000000000000000000000008152600401610102906102bb565b60405180910390fd5b3373ffffffffffffffffffffffffffffffffffffffff166108fc829081150290604051600060405180830381858888f19350505050158015610151573d6000803e3d6000fd5b50806000803373ffffffffffffffffffffffffffffffffffffffff1673ffffffffffffffffffffffffffffffffffffffff16815260200190815260200160002060008282546101a0919061035d565b9250508190555050565b60008060003373ffffffffffffffffffffffffffffffffffffffff1673ffffffffffffffffffffffffffffffffffffffff16815260200190815260200160002054905090565b346000803373ffffffffffffffffffffffffffffffffffffffff1673ffffffffffffffffffffffffffffffffffffffff168152602001908152602001600020600082825461023e9190610307565b92505081905550565b600081359050610256816103f8565b92915050565b600060208284031215610272576102716103ca565b5b600061028084828501610247565b91505092915050565b60006102966010836102f6565b91506102a1826103cf565b602082019050919050565b6102b581610391565b82525050565b600060208201905081810360008301526102d481610289565b9050919050565b60006020820190506102f060008301846102ac565b92915050565b600082825260208201905092915050565b600061031282610391565b915061031d83610391565b9250827fffffffffffffffffffffffffffffffffffffffffffffffffffffffffffffffff038211156103525761035161039b565b5b828201905092915050565b600061036882610391565b915061037383610391565b9250828210156103865761038561039b565b5b828203905092915050565b6000819050919050565b7f4e487b7100000000000000000000000000000000000000000000000000000000600052601160045260246000fd5b600080fd5b7f6e6f7420656e6f756768206d6f6e657900000000000000000000000000000000600082015250565b61040181610391565b811461040c57600080fd5b5056fea2646970667358221220892f7e0b0ad3f281a66891b42f164643a983179cc6a7e351e38613a5cc52bc9364736f6c63430008070033",
					"opcodes": "PUSH1 0x80 PUSH1 0x40 MSTORE CALLVALUE DUP1 ISZERO PUSH2 0x10 JUMPI PUSH1 0x0 DUP1 REVERT JUMPDEST POP PUSH2 0x445 DUP1 PUSH2 0x20 PUSH1 0x0 CODECOPY PUSH1 0x0 RETURN INVALID PUSH1 0x80 PUSH1 0x40 MSTORE PUSH1 0x4 CALLDATASIZE LT PUSH2 0x34 JUMPI PUSH1 0x0 CALLDATALOAD PUSH1 0xE0 SHR DUP1 PUSH4 0x2E1A7D4D EQ PUSH2 0x39 JUMPI DUP1 PUSH4 0xC71DACCB EQ PUSH2 0x55 JUMPI DUP1 PUSH4 0xD0E30DB0 EQ PUSH2 0x80 JUMPI JUMPDEST PUSH1 0x0 DUP1 REVERT JUMPDEST PUSH2 0x53 PUSH1 0x4 DUP1 CALLDATASIZE SUB DUP2 ADD SWAP1 PUSH2 0x4E SWAP2 SWAP1 PUSH2 0x25C JUMP JUMPDEST PUSH2 0x8A JUMP JUMPDEST STOP JUMPDEST CALLVALUE DUP1 ISZERO PUSH2 0x61 JUMPI PUSH1 0x0 DUP1 REVERT JUMPDEST POP PUSH2 0x6A PUSH2 0x1AA JUMP JUMPDEST PUSH1 0x40 MLOAD PUSH2 0x77 SWAP2 SWAP1 PUSH2 0x2DB JUMP JUMPDEST PUSH1 0x40 MLOAD DUP1 SWAP2 SUB SWAP1 RETURN JUMPDEST PUSH2 0x88 PUSH2 0x1F0 JUMP JUMPDEST STOP JUMPDEST PUSH1 0x0 DUP1 CALLER PUSH20 0xFFFFFFFFFFFFFFFFFFFFFFFFFFFFFFFFFFFFFFFF AND PUSH20 0xFFFFFFFFFFFFFFFFFFFFFFFFFFFFFFFFFFFFFFFF AND DUP2 MSTORE PUSH1 0x20 ADD SWAP1 DUP2 MSTORE PUSH1 0x20 ADD PUSH1 0x0 KECCAK256 SLOAD DUP2 GT ISZERO PUSH2 0x10B JUMPI PUSH1 0x40 MLOAD PUSH32 0x8C379A000000000000000000000000000000000000000000000000000000000 DUP2 MSTORE PUSH1 0x4 ADD PUSH2 0x102 SWAP1 PUSH2 0x2BB JUMP JUMPDEST PUSH1 0x40 MLOAD DUP1 SWAP2 SUB SWAP1 REVERT JUMPDEST CALLER PUSH20 0xFFFFFFFFFFFFFFFFFFFFFFFFFFFFFFFFFFFFFFFF AND PUSH2 0x8FC DUP3 SWAP1 DUP2 ISZERO MUL SWAP1 PUSH1 0x40 MLOAD PUSH1 0x0 PUSH1 0x40 MLOAD DUP1 DUP4 SUB DUP2 DUP6 DUP9 DUP9 CALL SWAP4 POP POP POP POP ISZERO DUP1 ISZERO PUSH2 0x151 JUMPI RETURNDATASIZE PUSH1 0x0 DUP1 RETURNDATACOPY RETURNDATASIZE PUSH1 0x0 REVERT JUMPDEST POP DUP1 PUSH1 0x0 DUP1 CALLER PUSH20 0xFFFFFFFFFFFFFFFFFFFFFFFFFFFFFFFFFFFFFFFF AND PUSH20 0xFFFFFFFFFFFFFFFFFFFFFFFFFFFFFFFFFFFFFFFF AND DUP2 MSTORE PUSH1 0x20 ADD SWAP1 DUP2 MSTORE PUSH1 0x20 ADD PUSH1 0x0 KECCAK256 PUSH1 0x0 DUP3 DUP3 SLOAD PUSH2 0x1A0 SWAP2 SWAP1 PUSH2 0x35D JUMP JUMPDEST SWAP3 POP POP DUP2 SWAP1 SSTORE POP POP JUMP JUMPDEST PUSH1 0x0 DUP1 PUSH1 0x0 CALLER PUSH20 0xFFFFFFFFFFFFFFFFFFFFFFFFFFFFFFFFFFFFFFFF AND PUSH20 0xFFFFFFFFFFFFFFFFFFFFFFFFFFFFFFFFFFFFFFFF AND DUP2 MSTORE PUSH1 0x20 ADD SWAP1 DUP2 MSTORE PUSH1 0x20 ADD PUSH1 0x0 KECCAK256 SLOAD SWAP1 POP SWAP1 JUMP JUMPDEST CALLVALUE PUSH1 0x0 DUP1 CALLER PUSH20 0xFFFFFFFFFFFFFFFFFFFFFFFFFFFFFFFFFFFFFFFF AND PUSH20 0xFFFFFFFFFFFFFFFFFFFFFFFFFFFFFFFFFFFFFFFF AND DUP2 MSTORE PUSH1 0x20 ADD SWAP1 DUP2 MSTORE PUSH1 0x20 ADD PUSH1 0x0 KECCAK256 PUSH1 0x0 DUP3 DUP3 SLOAD PUSH2 0x23E SWAP2 SWAP1 PUSH2 0x307 JUMP JUMPDEST SWAP3 POP POP DUP2 SWAP1 SSTORE POP JUMP JUMPDEST PUSH1 0x0 DUP2 CALLDATALOAD SWAP1 POP PUSH2 0x256 DUP2 PUSH2 0x3F8 JUMP JUMPDEST SWAP3 SWAP2 POP POP JUMP JUMPDEST PUSH1 0x0 PUSH1 0x20 DUP3 DUP5 SUB SLT ISZERO PUSH2 0x272 JUMPI PUSH2 0x271 PUSH2 0x3CA JUMP JUMPDEST JUMPDEST PUSH1 0x0 PUSH2 0x280 DUP5 DUP3 DUP6 ADD PUSH2 0x247 JUMP JUMPDEST SWAP2 POP POP SWAP3 SWAP2 POP POP JUMP JUMPDEST PUSH1 0x0 PUSH2 0x296 PUSH1 0x10 DUP4 PUSH2 0x2F6 JUMP JUMPDEST SWAP2 POP PUSH2 0x2A1 DUP3 PUSH2 0x3CF JUMP JUMPDEST PUSH1 0x20 DUP3 ADD SWAP1 POP SWAP2 SWAP1 POP JUMP JUMPDEST PUSH2 0x2B5 DUP2 PUSH2 0x391 JUMP JUMPDEST DUP3 MSTORE POP POP JUMP JUMPDEST PUSH1 0x0 PUSH1 0x20 DUP3 ADD SWAP1 POP DUP2 DUP2 SUB PUSH1 0x0 DUP4 ADD MSTORE PUSH2 0x2D4 DUP2 PUSH2 0x289 JUMP JUMPDEST SWAP1 POP SWAP2 SWAP1 POP JUMP JUMPDEST PUSH1 0x0 PUSH1 0x20 DUP3 ADD SWAP1 POP PUSH2 0x2F0 PUSH1 0x0 DUP4 ADD DUP5 PUSH2 0x2AC JUMP JUMPDEST SWAP3 SWAP2 POP POP JUMP JUMPDEST PUSH1 0x0 DUP3 DUP3 MSTORE PUSH1 0x20 DUP3 ADD SWAP1 POP SWAP3 SWAP2 POP POP JUMP JUMPDEST PUSH1 0x0 PUSH2 0x312 DUP3 PUSH2 0x391 JUMP JUMPDEST SWAP2 POP PUSH2 0x31D DUP4 PUSH2 0x391 JUMP JUMPDEST SWAP3 POP DUP3 PUSH32 0xFFFFFFFFFFFFFFFFFFFFFFFFFFFFFFFFFFFFFFFFFFFFFFFFFFFFFFFFFFFFFFFF SUB DUP3 GT ISZERO PUSH2 0x352 JUMPI PUSH2 0x351 PUSH2 0x39B JUMP JUMPDEST JUMPDEST DUP3 DUP3 ADD SWAP1 POP SWAP3 SWAP2 POP POP JUMP JUMPDEST PUSH1 0x0 PUSH2 0x368 DUP3 PUSH2 0x391 JUMP JUMPDEST SWAP2 POP PUSH2 0x373 DUP4 PUSH2 0x391 JUMP JUMPDEST SWAP3 POP DUP3 DUP3 LT ISZERO PUSH2 0x386 JUMPI PUSH2 0x385 PUSH2 0x39B JUMP JUMPDEST JUMPDEST DUP3 DUP3 SUB SWAP1 POP SWAP3 SWAP2 POP POP JUMP JUMPDEST PUSH1 0x0 DUP2 SWAP1 POP SWAP2 SWAP1 POP JUMP JUMPDEST PUSH32 0x4E487B7100000000000000000000000000000000000000000000000000000000 PUSH1 0x0 MSTORE PUSH1 0x11 PUSH1 0x4 MSTORE PUSH1 0x24 PUSH1 0x0 REVERT JUMPDEST PUSH1 0x0 DUP1 REVERT JUMPDEST PUSH32 0x6E6F7420656E6F756768206D6F6E657900000000000000000000000000000000 PUSH1 0x0 DUP3 ADD MSTORE POP JUMP JUMPDEST PUSH2 0x401 DUP2 PUSH2 0x391 JUMP JUMPDEST DUP2 EQ PUSH2 0x40C JUMPI PUSH1 0x0 DUP1 REVERT JUMPDEST POP JUMP INVALID LOG2 PUSH5 0x6970667358 0x22 SLT KECCAK256 DUP10 0x2F PUSH31 0xB0AD3F281A66891B42F164643A983179CC6A7E351E38613A5CC52BC936473 PUSH16 0x6C634300080700330000000000000000 "
				},
				"gasEstimates": {
					"creation": {
						"codeDepositCost": "218600",
						"executionCost": "263",
						"totalCost": "218863"
					},
					"external": {
						"checkBalance()": "2526",
						"deposit()": "infinite",
						"withdraw(uint256)": "infinite"
					}
				},
				"methodIdentifiers": {
					"checkBalance()": "c71daccb",
					"deposit()": "d0e30db0",
					"withdraw(uint256)": "2e1a7d4d"
				}
			},
			"storageLayout": {
				"storage": [
					{
						"astId": 5,
						"contract": "Bank.sol:Bank",
						"label": "_balances",
						"offset": 0,
						"slot": "0",
						"type": "t_mapping(t_address,t_uint256)"
					}
				],
				"types": {
					"t_address": {
						"encoding": "inplace",
						"label": "address",
						"numberOfBytes": "20"
					},
					"t_mapping(t_address,t_uint256)": {
						"encoding": "mapping",
						"key": "t_address",
						"label": "mapping(address => uint256)",
						"numberOfBytes": "32",
						"value": "t_uint256"
					},
					"t_uint256": {
						"encoding": "inplace",
						"label": "uint256",
						"numberOfBytes": "32"
					}
				}
			},
			"userdoc": {
				"kind": "user",
				"methods": {},
				"version": 1
			}
		}
	}
}